:100000000C9439030C9456030C9456030C94F3315E
:100010000C9456030C9456030C9456030C945603FC
:100020000C9456030C9456030C9420300C94083115
:100030000C94D52F0C9456030C9456030C94560331
:100040000C9456030C9456030C9456030C945603CC
:100050000C9456030C94FC2F0C9456030C945603EA
:100060000C9456030C9456030C9456030C945603AC
:100070000C9456030C9456030C9456030C9456039C
:100080000C9456030C9456030C9456030C9456038C
:100090000C9456030C9456030C9456030C9456037C
:1000A0000C9456030C9456030C94560305010980D6
:1000B000A101850319012AB700150126B700950192
:1000C00075108100C0050C0901A101850419012AE0
:1000D000A002150126A002950175108100C005013E
:1000E0000906A1018506050719E029E71500250184
:1000F0009508750181020507190029EF15002501F2
:1001000095F075018102050819012905950575010C
:100110009102950175039101C00660FF0961A1017B
:100120000962150026FF00952075088102096315F4
:100130000026FF00952075089102C005010906A15F
:1001400001050719E029E7150025019508750181CA
:10015000029501750881010507190029FF15002680
:10016000FF0095067508810005081901290515008D
:100170002501950575019102950175039101C00056
:10018000000000000000000000000000000000006F
:10019000000000000000000000000000000000005F
:1001A0000000007E0F00D4FFFFFFC70000007800B2
:1001B000000000000000002A2B28000000000000C2
:1001C0000000000000000000000029000000002CDA
:1001D0001E3420212224342627252E362D37382779
:1001E0001E1F202122232425263333362E37381F85
:1001F0000405060708090A0B0C0D0E0F1011121347
:100200001415161718191A1B1C1D2F3130232D35E4
:100210000405060708090A0B0C0D0E0F1011121326
:100220001415161718191A1B1C1D2F3130354C09BF
:10023000025B00030100A0FA0904000001030101B0
:100240000009211101000122440007058103080073
:10025000010904010002030000000921110100014D
:100260002222000705820320000107050303200066
:10027000010904020001030000000921110100012D
:10028000226D000705840320000112010002000016
:100290000008534601000100010203011C0376001F
:1002A000690061006C003A006600360034006300AB
:1002B000320062003300630000000C0343006F0053
:1002C00072006E0065000000100366006F006F0092
:1002D0007300740061006E000000040309042B0029
:1002E00014001A00080015001700E00004001600B2
:1002F000070009000A00E1001D001B0006001900AC
:100300000500000000000000E300777C2C002A00BC
:10031000130012000C0018001C00340033000F0002
:100320000E000D000B0029003800370036001000C9
:100330001100000000000000E600787C28002B007F
:100340001E001F00200021002200E000000000002D
:10035000000000000000E1000000000000000000BC
:100360000000000000000000E30001002C002A0053
:1003700027002600250024002300000000004F0075
:10038000520051005000000000000000000000007A
:100390000000000000000000E600010028002B0023
:1003A0001E021F02200221022202E00000000000C3
:1003B000000000000000E10000000000000000005C
:1003C0000000000000000000E30001002C002A00F3
:1003D00027022602250224022302350031003000C4
:1003E0002F002E002D003502310230022F022E0286
:1003F0002D02000000000000E60001002800007C43
:10040000000000000000000000002078237825781C
:1004100027780000000021782478267828780000CA
:100420000000000000000000E30001002C000000BC
:1004300000000000000000000000000000000000BC
:1004400000000000000000000000000000000000AC
:100450000000000000000000E6000100280001008C
:100460000100F40479138F13000002000200F0046D
:1004700079138F13000003000100F50479138F1323
:10048000000004000200DA0479138F13D10605007E
:100490000100F60479138F13000006000200DC044B
:1004A00079138F13000007000200F20479138F13F1
:1004B000000008000100F70479138F1300001200F8
:1004C0000200F80479138F13000013000200FA04ED
:1004D00079138F13000014000100FC0479138F13AB
:1004E0000000150000000000DA06010F0000FD37D3
:1004F0007A585A000004E6D6B446020021011600DC
:100500000000742FE5A3E0042F01425D003D8889BF
:10051000C65436C3174FE4DCCBB3DF6320E7D717ED
:1005200039D83D5F52C90BECB7E6D5195224B073E8
:100530006759B3E0B456C74788C96520CF4A3C9491
:100540000C015E29865C8E1FD2901470DD8177B21B
:10055000096EB5F6AEE987F3FD6E8628D433CFB8C1
:1005600075786A02A926DEE8E6250BF2F12FEB95F5
:10057000EF757127C27F9195E2635AB0D245B87288
:10058000C0B554D7004EDE62BA2013945BD1FF5938
:1005900021584935658A11E5CA1A8401C66412A733
:1005A000BCC461E80A8B8F1814972CD485C2CA1179
:1005B000139D8194454D5141C1135A07F3F59C8A0F
:1005C0002EB089D73F3EF2C32110C396AA6256BA15
:1005D00070B31061455FB111971836BB16666F7B1B
:1005E000478FC44223D0767E3FA7ECEA0CBF277426
:1005F000C309BD093C35A8EED8AEC7E9FF0F2F648B
:10060000DF72C5CDF6701A8177ECEF634989711EF0
:10061000FAEC985A059B0A0F6BC0B382F93085B08B
:10062000A8A630E1DE91E0E101A42FEECFFAB4CC30
:1006300009FA55E9DC3EB4782343F5F745FEAA6A8A
:100640007F620EBDEBFB2CF315BF380D4959E0005E
:1006500000005614AADD3187545C0001DE02B008A8
:100660000000C0E5C082B1C467FB020000000004C6
:10067000595A11241FBECFEFDAE0DEBFCDBF11E023
:10068000A0E0B1E0EEE7F8E602C005900D92A63CCE
:10069000B107D9F725E0A6ECB1E001C01D92A33067
:1006A000B207E1F70E94AC290C94E2330C940000ED
:1006B0009C019A9581159F4118F5F32FF270EE2752
:1006C000832F8170732F74706627532F58704427BF
:1006D00034FF0CC08295807FEF2B09F08062672B7E
:1006E00009F08064452B69F080680895EF2B09F0CC
:1006F0008260672B09F08460452B19F088600895AB
:1007000080E00895CF93DF93EB010E945803FE0130
:100710000995DF91CF910895282F92959F7096307B
:1007200099F060F4925F9F70923030F4203FB1F006
:1007300038F481E0283E38F080E008959A5FF3CFE6
:1007400081E0243FC9F7089591E0813F09F090E0EE
:1007500081E0283E08F080E0892B089581E008952B
:100760008093D80408958093D904089521E030E05F
:1007700001C0220F8A95EAF78091D904822B0E944A
:10078000B303089521E030E0A90102C0440F551FD2
:100790008A95E2F7CA0180959091D90489230E9435
:1007A000B3030895292F983090F5863080F590E0B6
:1007B00036E0239F800D911D1124282F277041E0E2
:1007C00001C0440F2A95EAF723E0969587952A956C
:1007D000E1F7FC01EE0FFF1FE80FF91FE55EFC4F8C
:1007E00020E030E070E05191DF01CB01022E02C029
:1007F000969587950A94E2F78170819585278423E1
:1008000085278E932F5F3F4F2330310561F7089581
:10081000292F983078F5863068F590E036E0239FF0
:10082000800D911D1124682F677023E096958795A0
:100830002A95E1F7FC01EE0FFF1FE80FF91FE55EB7
:10084000FC4F40E050E080E0219130E0062E02C0F5
:10085000369527950A94E2F721703327042E01C0BC
:10086000220F0A94EAF7822B4F5F5F4F4330510506
:1008700059F7089580E008959091D90421E030E07F
:10088000F90101C0EE0F8A95EAF7D90102C0AA0F5B
:10089000BB1F6A95E2F7EA2B01C0220F4A95EAF7DF
:1008A000892F8E23E81305C0892F822B0E94B30362
:1008B00008952095822F8923F9CF8091C9029091C4
:1008C000C802981301C008958F5F8770FACF909186
:1008D00057048095892380935704282F277021116E
:1008E00011C0891779F09091FF0492FF0BC0869593
:1008F000869586950E94C20310925704109259045F
:1009000010925804089590915304982B9093530497
:100910000895982F909580915304892380935304D0
:10092000089580915104811531F010925104109274
:10093000500410924F0408959C01803E910509F4E3
:1009400048C0D8F48133910509F47DC048F4893258
:10095000910509F46DC08A9709F47CC0C901089516
:100960008933910551F18238910539F1C597B1F775
:100970008091FE0485FFF2CF29C0843E910509F4E1
:1009800047C048F4823E910599F1833E9105A9F153
:1009900021EE30E0E3CF863E910509F444C0873E66
:1009A0009105E1F68091FE0483FD61C09091FF0402
:1009B00091FF2BC024EE30E0D1CF8091FE048370F4
:1009C000811152C08091FF0483FFC8CF29E230E03B
:1009D000C5CF8091FE0480FD33C09091FF0490FF4D
:1009E000BDCF23EE30E084FFB9CF20E030E0B6CFBA
:1009F0008091FE0482FDF5CFB1CF8091FE0482FD8F
:100A000030C09091FF0490FD2FC084FFA7CFEDCFA1
:100A10008091FF0481FFA2CF8091FE0427EE30E099
:100A200084FDE3CF9BCF8091FE0483FDF7CF96CF6B
:100A30008091FE0485FD1EC08091FF0483FF8ECF50
:100A400029E330E08BCF8091FE0486FF87CF2AE236
:100A500030E084CF8091FE0486FF80CF21E330E038
:100A60007DCF22EE30E07ACF20EE30E077CF26EE59
:100A700030E074CF25E330E071CF9091FE0492FF17
:100A800010C041E0282F2471243009F040E031E00B
:100A9000282F2871283009F030E0431711F02CE09E
:100AA000822793FF10C041E0282F2471243109F0E0
:100AB00040E031E0282F2871283109F030E0431759
:100AC00011F02CE082273091FF0430FF10C051E07C
:100AD000282F2171213009F050E041E0282F2871A2
:100AE000283009F040E0541711F029E0822731FF47
:100AF00010C041E0282F2171213109F040E031E0A0
:100B0000282F2871283109F030E0431711F029E02F
:100B1000822794FD877E08951F93CF93DF930E94D1
:100B20009C04EC01811522E5920708F055C081155F
:100B300040E5940708F0D1C0803E910520F58D3C3A
:100B4000910508F0A4C0883A910570F4853A9105A2
:100B500008F09AC081309105D1F10497813A91054E
:100B6000B0F1C0E0D0E033C0885A91094B97C8F784
:100B7000C85AD0E0CC0FDD1FC65ADE4F0990D8818D
:100B8000C02DD46424C0811550E49507C0F4C1156C
:100B900080E2D80708F0B7C0C83ED105C0F0CE014A
:100BA0009A9581159F41E8F68D2F0E943D05182FDB
:100BB000CE0199270E949C04EC01D12B08C09927F3
:100BC0000E949C04CC27DF70C82BD92BD06ACE01A1
:100BD000DF91CF911F910895803842E59407C8F5C1
:100BE000803652E5950708F05BC0C03482E5D8072F
:100BF000D0F4C03292E5D90708F04BC08C2F86950F
:100C0000869520E2829FC0011124C37021E030E06C
:100C1000A90102C0440F551FCA95E2F7EA01C82B8B
:100C2000D92BDD68D4CF8C2F86958695877050E2BE
:100C3000859FC0011124C37021E030E0A90102C0EA
:100C4000440F551FCA95E2F7EA01C82BD92BDC687F
:100C5000BECF803C52E5950758F48F71C03AD2451B
:100C6000A0F590E0982F8827EC01C46FD06AAFCF31
:100C7000805C9245809708F074CFDC2FCC27CC277E
:100C8000DF71C06FD06AA3CFA497D064A0CFD06526
:100C90009ECFCF71D0E0DC2FCC27C16FD06A97CF29
:100CA00086958695877020E2829FC0011124C370CB
:100CB00021E030E0A90102C0440F551FCA95E2F7B8
:100CC000EA01C82BD92BDA6882CF0E943D05C82FD4
:100CD000D0E0DC2FCC27D0627ACF8F710E943D0507
:100CE00093E0CC0FDD1F9A95E1F7CC27DF70282F1A
:100CF00030E084FF04C050E1859F90011124C22B95
:100D0000D32BD06964CF8D2F8F710E943D05182F92
:100D1000CE0199270E949C04EC01D12BDCCF80E00E
:100D20000895F894E82FE295EF70F0E041A18F70FC
:100D300021E030E0B90102C0660F771F8A95E2F723
:100D4000CB01962F9095942391A392A1892B82A3F6
:100D5000789408959C0121158CE7380741F480911F
:100D60000D0190910E01892B11F420E030E0C901B2
:100D70000895ECEBF3E080E090E06DEB78E243EE79
:100D800058E228E539E277836683518740873387C5
:100D9000228797878687019670968830910599F704
:100DA00008958091DA049091DB0490930C01809374
:100DB0000B010895EF92FF920F931F93CF93DF9350
:100DC000FB018FEF9FEF4430510508F45FC0409165
:100DD000FE0441FB882780F990E0880F991F42FBB1
:100DE000002700F910E0000F111F000F111F802BCA
:100DF000912B40FBEE24E0F8F12C8E299F2943FB38
:100E0000222720F9C22F50E0D52F53E0CC0FDD1F51
:100E10005A95E1F78C2B9D2B44FB222720F950E1BA
:100E2000259F90011124822B932B45FB222720F92B
:100E300050E2259F90011124822B932B46FB222701
:100E400020F950E4259F90011124822B932B47FB1E
:100E5000222720F940E8249F90011124822B932B14
:100E60002091FF04322F3170932B26952170B22FE1
:100E7000BB0FA0E08A2B9B2B092E000CAA0BBB0BEF
:100E800080839183A283B38380E090E0CDB7DEB707
:100E9000E6E00C9436339C0143E0969587954A959D
:100EA000E1F78E719927FC01E75EFD4F408151818A
:100EB000F901EF70FF2721E030E002C0220F331F5D
:100EC000EA95E2F7611541F0422B532B875E9D4F67
:100ED000FC0151834083089520953095422353238C
:100EE000F5CF10926A041092690420915F049091EA
:100EF0005E0480916004211102C090E080E0909334
:100F00005E04809360040895AC0130916C0460919C
:100F10006B04232F621301C00895822F90E0FC011F
:100F2000EE0FFF1FEF59FB4F0190F081E02DE4170A
:100F3000F50791F467E0649FF001659FF00D1124BF
:100F4000E65AFB4F41E044832313E6CF01968370BA
:100F5000992780936C0408950196282F2370DACF87
:100F6000FC018481862381110AC082818115B9F038
:100F70006823908593FF05C081E061110FC080E078
:100F80000895282F22952F708F70282B962F9295D9
:100F90009F706F70962B81E02913F1CF089581E047
:100FA0000895FA01309709F0099508958091920209
:100FB000811559F0E091BE02F091BF02309729F0FF
:100FC0000190F081E02D0995089580E00895A3E057
:100FD000B0E0EDEEF7E00C941E339C018091160218
:100FE0009091170282179307A1F030931702209374
:100FF0001602E091BE02F091BF02309751F083E0FB
:1010000089833B832A830084F185E02DCE010196FC
:1010100009952396E2E00C943A33A3E0B0E0E3E1D3
:10102000F8E00C941E339C018091140290911502FB
:1010300082179307A1F03093150220931402E091D8
:10104000BE02F091BF02309751F084E089833B8368
:101050002A830084F185E02DCE010196099523961F
:10106000E2E00C943A3390913101913091F0AAEC86
:10107000B1E0EFEF90E02D91821751F0EF3F19F4BE
:10108000211101C0E92F9F5F9630A9F7EF3FC9F406
:1010900008959091FE0497FFEACFE82FE695E69534
:1010A000E695803FA8F7F0E0E053FE4F877021E01F
:1010B00030E001C0220F8A95EAF78281822B828379
:1010C00008950E2E000CFF0BE853FE4FF8CF9091C1
:1010D0003101913021F49091FE0497FD0CC0EAECAF
:1010E000F1E09191891302C0DF011E9251E0E03DD1
:1010F000F507B9F70895E82FE695E695E695803F60
:10110000C8F7F0E0E053FE4F877021E030E0A9011E
:1011100002C0440F551F8A95E2F7CA01809592815B
:101120008923828308958091300108952FB7F89420
:101130008091100290911102A0911202B0911302BD
:101140002FBF08958091DC049091DD04892B91F0EC
:101150000E94960820914F0430915004AC01421B2C
:10116000530B9A0181E04091DC045091DD04241777
:10117000350708F480E00895CF93DF93C0915304BE
:1011800080915604C82B809151048115F9F080910B
:10119000DC049091DD04892B29F00E94A2088111C2
:1011A0000E949104D091510480913101813021F449
:1011B0008091FE0487FD14C086E02AEC31E090E0C7
:1011C000815090F491110E949104CD2B80913803AD
:1011D00080958C2390913703892BDF91CF910895CF
:1011E0008EE122ED31E0EBCFF90141919F014115F4
:1011F00039F39F5FE5CF962F2091FF0422FF10C0A7
:10120000682F660F660F660F692B609357040E9464
:10121000B6030E9496089093590480935804089549
:101220000E94B603089590915104292F2823211577
:1012300061F08095892380935104811539F00E94D3
:10124000960880934F0490935004089580E090E0B6
:10125000F8CFCF93C82F8091FF0482FF0CC08091FC
:1012600051048C1741F00E9496089093500480938B
:101270004F04C0935104CF9108952FB7F894609113
:1012800010027091110280911202909113022FBFEF
:101290000895CF92DF92EF92FF9280919202811592
:1012A00059F00E943D096B017C01C701B601FF9016
:1012B000EF90DF90CF9008950E943D09C090940276
:1012C000D0909502E0909602F0909702C60ED71E3D
:1012D000E81EF91EEACFCF92DF92EF92FF92CF93F2
:1012E000DF93D82FC92FC090B603D090B703E090FA
:1012F000B803F090B9030E943D096C197D098E096D
:101300009F09643F71408105910518F10E943D09D4
:101310006B017C0182E390E0A0E0B0E0C092650246
:10132000D0926602E0926702F092680280936102B6
:1013300090936202A0936302B0936402D093B403CB
:10134000C093B503DF91CF91FF90EF90DF90CF90E6
:10135000089584EF91E0A0E0B0E0E0CF87E797E761
:10136000909301088093000888E19AE00FB6F89402
:10137000A895809360000FBE90936000FFCF089502
:10138000FC019B0180910602909107028617970746
:1013900040F0672B29F48091E8008E778093E80075
:1013A000C90140E0009741F4411106C08091E80076
:1013B00082FF2FC080E00895209174022115A9F1C9
:1013C0002530A9F12091E80023FD2DC02091E800EF
:1013D00022FDECCF2091E80020FFE4CF3091F30014
:1013E0002091F200009719F02830310558F041E0C3
:1013F0002830310509F040E02091E8002E77209355
:10140000E800D0CF41914093F10001972F5F3F4F0B
:10141000E9CF80917402811541F0853041F08091CF
:10142000E80083FFC3CF81E0089582E0089583E060
:1014300008958091000287FF13C08091E80082FF29
:1014400006C08091E8008B778093E8000895809132
:1014500074028111F2CF0895809174028115D9F33D
:101460008091E80080FFF8CF8091E8008E77ECCF84
:101470002091E4003091E50095E6A9012091EC006F
:10148000822F817020FF06C08091E80080FF06C097
:1014900080E008952091E80022FD1AC08091740236
:1014A000811589F0853089F08091EB0085FD0FC0B2
:1014B0002091E4003091E50042175307F9F29A9524
:1014C000E1F684E0089582E0089583E0089581E0E4
:1014D0000895E8EDF0E080818E7F80831092E20035
:1014E0001092DA001092E100A0EEB0E08C918160E1
:1014F0008C9380818F77808319BCA7EDB0E08C91AD
:101500008E7F8C9380818F7E80831092FF0108955F
:10151000FC01AC014C5F5F4F8FEF61E39191892734
:1015200028E030E0982F990F87FF09C0892F862780
:1015300021503040B9F7E417F50781F70895892F56
:10154000F7CF982F9093E900891771F07091EC0014
:101550002091ED005091F00021FD09C09F5F973070
:1015600089F78093E9000895762F242F50E0309179
:10157000EB003E7F3093EB003091ED003D7F3093E8
:10158000ED003091EB0031603093EB007093EC0094
:101590002093ED005093F0002091EE0027FDDECF68
:1015A0000895A0E0B0E0E7EDFAE00C941833C8ED40
:1015B000D0E088818F7E8883E7EDF0E080818160D4
:1015C000808384E082BF81E08093FF0188818E7FE9
:1015D000888302EE10E0F80110821092DA0081EEAA
:1015E000C82ED12CF601108288818F77888388815C
:1015F0008068888388818F7D888319BC10927402EB
:101600001092FE01109257021092FD0190EEE92E09
:10161000F12CF70180818B7F8083888181608883B2
:1016200042E060E080E00E94A10AF60180818E7FA6
:101630008083F801808181608083808188608083DD
:10164000F70180818E7F8083888180618883CDB718
:10165000DEB7E8E00C9434339C012115310509F420
:1016600008958FE99FE00197F1F700C00000215035
:101670003109F3CF0F931F93CF93DF938B01EA01CF
:1016800090917402943059F58093E9008FEF909116
:10169000E80095FD06C095ED9A95F1F700008A9552
:1016A000B1F78091E80085FF1AC00E94380A8111C5
:1016B00011C08091E80085FD06C08091E8008E771A
:1016C0008093E800F2CFF80181918F018093F100BF
:1016D000219779F78091E8008E778093E800DF9179
:1016E000CF911F910F910895CF93DF93D82FC92FDA
:1016F00048E050E0682F792F81E00E943A0B88E0A3
:10170000ED2FFC2FA8E0B2E001900D928A95E1F751
:10171000DF91CF910895BC0140E250E084E00E9447
:101720003A0B0895BC0143E050E084E00E943A0B7C
:101730000895A0E0B0E0EFE9FBE00C941633182F19
:10174000092FB62EA72E7A018091FA019AE0C92EB0
:10175000D12C8A3018F0CC24C394D12CC1E0D0E035
:101760006B2D7A2D812F902FF7010995811116C0CD
:101770002196CC16DD0694F0CC9FC001CD9F900D34
:10178000900D112420E030E045E34A95F1F7000088
:101790002F5F3F4F28173907B9F7E2CFCDB7DEB734
:1017A000EAE00C9432339091FF0492FB222720F957
:1017B000281779F080FB92F99093FF046091FE0462
:1017C0007091FF0484E090E00E94C43382E00E94A4
:1017D000670408951F93CF93DF93962F122F632FE3
:1017E0008430D8F49830C8F44630B8F4C42FD0E030
:1017F000CC0FDD1F2CE0929FC00DD11D112490E66F
:10180000899FC00DD11D1124CE0188960E94A63358
:10181000612FCE0189960E94A633DF91CF911F914F
:101820000895CF93DF93C6E7D2E060E0CE010E9437
:10183000A6332196C11584E0D807B9F7DF91CF917F
:101840000895CF93C82F62EC811101C06FEF84E23D
:1018500090E00E94A63369EBC11101C06FEF85E2F1
:1018600090E00E94A63366ECC11101C06FEF86E2E2
:1018700090E00E94A633CF9108950F931F93CF93CA
:10188000DF930AED14E0C8EAD1E0CE010E9488336C
:10189000F80161918F01681719F0CE010E94A633FB
:1018A0002196CC3CF1E0DF0781F7DF91CF911F91CA
:1018B0000F9108950F931F93CF93DF930AED14E0D8
:1018C000C8EAD1E0CE010E948833F80181938F01EC
:1018D0002196CC3CF1E0DF07A9F7C8E6D4E0FE0191
:1018E00085919491009711F0FC0109952C96F4E0F4
:1018F000C83FDF07A1F7DF91CF911F910F910895A6
:101900000F931F93CF93DF93843030F5683020F529
:10191000463010F5C42FD0E0CC0FDD1F2CE0629FC5
:10192000C00DD11D112430E6839FC00DD11D11249F
:10193000CE0188960E948833082F10E0102F0027D0
:10194000CE0189960E9488339801282BC901DF9126
:10195000CF911F910F91089580E090E0F8CF462F2E
:10196000672F20919A0230919B02232B91F4703FB4
:1019700039F4403F71F48091980290919902089552
:10198000783038F4463028F4843018F40E94800C03
:10199000089580E090E00895A0E0B0E0E2EDFCE082
:1019A0000C9419337C010091D9048091D804082B40
:1019B000C3E0D0E010E0C8010C2E02C095958795D9
:1019C0000A94E2F780FD09C02197A8F7D12C8D2D4C
:1019D000CDB7DEB7E7E00C943533DC2EB7018C2FA2
:1019E0000E94AF0C0E948C05019771F3F0CFCF934A
:1019F000DF93D82FC92F0E94CC0C6D2F7C2F0E9413
:101A0000AF0C0E948C05DF91CF910895FC01848179
:101A1000811571F087819085009729F00E948C05CF
:101A20000E948C030895808191810E94F70CF8CF69
:101A300080E008951F93CF93DF93182FD92F61155E
:101A400099F0411589F00E94CC0CC82F682F812F86
:101A50009D2F0E94D203612F7D2F8C2F0E94AF0CEF
:101A6000DF91CF911F9108950E940804C82FF3CFF2
:101A7000CF93DF93FC01462FC781D085209731F4A7
:101A80006581808191810E941A0DEC01CE01DF9168
:101A9000CF91089584E290E00E948833823C89F4DB
:101AA00085E290E00E948833893B59F486E290E019
:101AB0000E94883391E0863C09F090E0892F817084
:101AC000089580E0FCCF80913101813059F58091FB
:101AD000FE0487FF27C00E94BC088093D10140E22A
:101AE00050E06EE972E080ED91E00E945B33892B5B
:101AF000C1F080E2E0EDF1E0AEE9B2E001900D92DC
:101B00008A95E1F7E091BE02F091BF02309749F06B
:101B100086E08093D0010480F581E02D80ED91E096
:101B2000099508950E94BC088093C80148E050E0E0
:101B300060EC72E088EC91E00E945B33892B89F3C2
:101B400088E0E8ECF1E0A0ECB2E001900D928A951B
:101B5000E1F7E091BE02F091BF02309711F30280ED
:101B6000F381E02D88EC91E0DBCF811521F00E941C
:101B700083040E94630D0895811539F090915604F5
:101B8000892B809356040E94630D0895811521F0DE
:101B90000E9489040E94630D0895811541F080958B
:101BA000909156048923809356040E94630D0895F2
:101BB000CF93C82F8115D1F08CEF8C0F813AA0F50F
:101BC00080913101813021F48091FE0487FD10C0A5
:101BD000EAECF1E08191C81709F121E0E03DF2075C
:101BE000C9F78C2F0E9433080E94630DCF9108958E
:101BF000EC2FE695E695E695F0E0E053FE4F828106
:101C000090E04C2F477021E030E002C0220F331FDC
:101C10004A95E2F782239323892B19F38C2F0E9494
:101C200067080E94630DDDCF80E28C0F883048F496
:101C3000C77081E001C0880FCA95EAF70E9483044B
:101C4000D3CF8BE58C0F833038F42C2F2452330BF9
:101C5000C9010E94E707CACFC85ACB3138F6EC2F2A
:101C6000F0E0EE0FFF1FE057FE4F808191810E9450
:101C70000D08BCCFCF93DF93EC01805E91090897EC
:101C800020F06CEB7DE0209711F465EB7DE0CE0158
:101C90000E9482038C2F0E94D80DDF91CF9108956E
:101CA0009C01611529F0809156048260809356044E
:101CB000C90190528115904308F43327C9010E944D
:101CC0003A0E0895811539F19CEF980F913A28F456
:101CD0000E9467080E94630D089590E2980F983063
:101CE00050F4877091E001C0990F8A95EAF7892F27
:101CF0000E948904EFCF9BE5980F933028F480E091
:101D000090E00E94E7070895885A8B3120F480E024
:101D100090E00E940D080895CF93DF93EC010E949C
:101D2000620ECE01805E9109089720F06DEC7DE097
:101D3000209711F466EC7DE0CE010E948203DF91D2
:101D4000CF9108950F931F93CF93C82F8B010E94BB
:101D5000D80D0115110539F48C2F0E94620ECF9118
:101D60001F910F9108958FE99FE00197F1F700C04F
:101D7000000001501109EDCF6091FA047091FB044D
:101D8000893321F06091F8047091F9040E94A20E49
:101D9000089510925304809131018130C1F48091F3
:101DA000FE0487FF14C0E2EDF1E08EE1DF011D9239
:101DB0008A95E9F780E090E00E94E70780E090E0F4
:101DC0000E940D08109256040E94630D0895EAECDB
:101DD000F1E086E0EBCF0E94C90E2FEF84E39CE098
:101DE000215080409040E1F700C0000088E19AE077
:101DF0000FB6F894A895809360000FBE9093600092
:101E0000FFCFCF93DF93FB018FEF9FEF443051055E
:101E1000B8F0D081C1810E94C90ED093FE04C37076
:101E20008091FF048C7FC82BC093FF046091FE0457
:101E30007091FF0484E090E00E94C43380E090E061
:101E4000DF91CF910895EAEDF4E0128E138E8FEAC0
:101E500090E09183808385E0848F28E833E13383A9
:101E6000228322E330E0378B268B24EB30E0318F66
:101E7000208F158E178E168E20E530E031A320A31B
:101E800082A30E943D0C0E94C90E1092FF04109282
:101E9000FE0480E084608093FF0460E074E084E0EE
:101EA00090E00E94C4330E945A0C0895AAE2B0E068
:101EB000ECE5FFE00C941D3380E092E0FC0101961C
:101EC0002091F100208322E088309207B9F78091B9
:101ED0000102893009F45AC0C8F4823009F4B7C04D
:101EE000833009F486C0813091F18091E80083FF4E
:101EF000EBC080910002909101029A3008F0E4C09A
:101F0000E92FF0E0EC51FC4C0C9445338A3009F495
:101F10008DC08B3051F780910002813231F7809172
:101F2000040290910502892B01F78091E800877FD8
:101F30008093E8000E94190A81E0909102029111B9
:101F400001C080E0809331010E94C90ECECF809104
:101F50000002813A51F68091E800877F8093E80083
:101F60008091040290910502892B61F060E080E08D
:101F700090E070E00E94C0098091E8008B77809328
:101F8000E800B3CF68E088E092E0F3CF80910002F0
:101F9000813209F0AACF80910402909105028D7FD1
:101FA000892B09F0A2CF8091E800877F8093E80019
:101FB0008091E80082FF18C09091F3008091F200B8
:101FC000029731F48091F100813011F0863021F4D4
:101FD0008091F100809330018091E8008B778093AD
:101FE000E8000E94190A81CF809174028111E0CF2C
:101FF0007CCF80910002813A09F077CF8091040272
:1020000090910502892B09F070CF8091E800877FBD
:102010008093E8008091E80080FFFCCF809131013F
:102020008093F1008091E8008E77D9CF80910002F3
:10203000813209F05ACF8091E800877F8093E800D1
:102040000E94190A8091030280932F014ECF809144
:102050000002813A09F049CF8091E800877F8093A0
:10206000E8008091E80080FFFCCF80912F01D8CF5D
:10207000803889F0823841F5809104028F70873072
:1020800018F58093E9008091EB0085FB882780F9A3
:102090001092E90006C080915702880F9091FD01CF
:1020A000892B9091E800977F9093E8008093F1004E
:1020B0001092F1008091E8008E7723C0811116C044
:1020C00080910202813011F18091E80083FF0AC003
:1020D0008091E800877F8093E8008091EB00806228
:1020E0008093EB00AA96E3E00C943933823061F7D9
:1020F00080910202811589F01092E9008091E80038
:10210000877F8093E8000E94190ADECF81E0933038
:1021100009F080E080935702EFCF809104028F7026
:102120002FEF280F263080F68093E9002091EB00F6
:1021300020FFE2CF933031F48091EB0080628093F6
:10214000EB00DACF9091EB0090619093EB0021E0EF
:1021500030E0A90102C0440F551F8A95E2F7409371
:10216000EA001092EA008091EB008860E8CF8111CC
:10217000ABCF109102021F778091E3008078812B12
:102180008093E3008091E800877F8093E8000E94BD
:10219000190A8091E80080FFFCCF8091E3008068FD
:1021A0008093E30083E0111101C082E08093740208
:1021B0008BCF8058823008F087CF809102029091B7
:1021C00003028C3D53E0950799F583E08A838AE208
:1021D00089834FB7F894DE01139620E03EE051E288
:1021E000E32FF0E050935700849120FF03C08295C5
:1021F0008F703F5F8F708A30C8F0895C90E08D935C
:102200009D932F5F243161F74FBF8091E800877F56
:102210008093E8006AE270E0CE0101960E94C00956
:102220008091E8008B778093E8004ECF805DE6CF09
:10223000292F33272330310509F44EC078F521309A
:10224000310509F488C08BE590E0EFE2F2E022303E
:10225000310509F039CF2091E800277F2093E8006D
:1022600020910602309107028217930708F49C011F
:1022700040E02115310509F073C0411171C0809112
:10228000E80082FDCDCF80917402811549F285303E
:1022900039F28091E80083FFF2CFC2CF809104022F
:1022A000909105022132310509F446C022323105F0
:1022B00009F00ACF8330910508F006CFFC01EE0F3C
:1022C000FF1FEE5BFE4F0190F081E02D815C9E4F81
:1022D000DC018C9190E010C09C013327823021F109
:1022E0002330310568F4232BB9F4EAEDF2E0E491F0
:1022F0008E2F90E0EAEDF2E0009709F4E5CEABCF47
:102300002330310509F0E0CEECE9F2E0E4918E2FC4
:1023100090E0ECE9F2E0F0CFE8ECF2E0E4918E2F0F
:1023200090E0E8ECF2E0E8CFEAEBF2E0E4918E2F07
:1023300090E0EAEBF2E0E0CF8330910508F0C4CE04
:10234000FC01EE0FFF1FE85BFE4F0190F081E02DD6
:1023500089E090E080CF82E190E0EAE8F2E07BCF94
:1023600080917402811509F45BCF853009F458CF50
:102370008091E80083FD54CF8091E80082FD7FCFFB
:102380008091E80080FF75CF9091F3008091F2007A
:102390002115310519F08830910550F041E008977A
:1023A00009F040E08091E8008E778093E80061CFEB
:1023B00044914093F1003196215031090196E8CFC4
:1023C000803809F081CE8091E800877F8093E80013
:1023D0008091FE018093F1006DCE811175CE109138
:1023E0000202123008F070CE8091E800877F80935F
:1023F000E8001093FE010E94190A1115F9F084E01B
:102400008093740242E061EC81E00E94A10A42E202
:1024100061EC84E00E94A10A42E261EC82E00E9449
:10242000A10A42E260EC83E00E94A10A809174025A
:10243000843051F482E08093320146CE8091E300F3
:1024400087FDDDCF81E0DCCF81E0F5CF80913401E5
:10245000877F80933401909156049D7F909356041A
:1024600084FF06C08F7E8093340182E00E94830443
:102470008091340185FF06C08F7D8093340180E216
:102480000E9483040E94630D0895CF92DF92FF9211
:102490000F931F93CF93DF93EC018B01F42E809168
:1024A000340182FF65C0C0904204D0904304CC1632
:1024B000DD0619F0209709F05BC0809134018B7F15
:1024C00080933401C1E081FD10C08091400490915F
:1024D00041049801281B390BC1E080910B019091B8
:1024E0000C012817390708F4C0E080913401C0FBC3
:1024F00081F9809334016C2FC6010E944B078091B3
:10250000530481FF08C080913401806180933401BD
:1025100082E00E9489048091530485FF08C0809165
:10252000340180628093340180E20E9489046C2F20
:10253000C6010E94500EF11431F08091F50485FF20
:1025400002C086FF29C08091F8049091F9040E948E
:102550002C0B80914204909143049C013052211530
:10256000304308F499270E948C0E0E94261210C056
:10257000CE01905281159043B8F4CE0199270E9464
:102580008C0E8091420490914304C817D90769F3D7
:102590001093410400934004DF91CF911F910F915C
:1025A000FF90DF90CF900895CE01E9CFCF93DF93D6
:1025B000EC014A855B856E857F850E94D1079B81F2
:1025C0009095809156048923809356048C810E94B3
:1025D00089040E94630D86E0FE0111928A95E9F755
:1025E000DF91CF910895CF93DF93EC018D8181FD31
:1025F00014C082608D83809156049B81892B8093C7
:1026000056048C810E9483040E94630D488559857D
:102610006E857F85CE010E94D10710923D041092F5
:102620003C048D8180FD03C0CE010E94D612DF9153
:10263000CF9108951F93CF93DF93182FA091B203EA
:10264000B091B303109709F44AC01092B5031092E9
:10265000B40310923803109237031696CD91DC9193
:102660001797CE019A9581159F4108F4D07ED1E04D
:10267000C11101C0D0E01996ED91FC911A973097E5
:1026800031F01B966D917C9180E00995D823D1158E
:1026900039F08CEF8C0F813A30F58C2F0E9467084F
:1026A0001115A9F0E091B203F091B303808584FD88
:1026B0000EC08091B103811551F0808191819C0100
:1026C000215031092F333E4710F40E946B090E94BC
:1026D000630D1092B3031092B2031092B103DF9115
:1026E000CF911F9108950E94630D8C2F0E94620E5E
:1026F000D7CF9C01CB01DA01F90132964591549173
:10270000A417B50748F0F9013496659174910E94B9
:10271000683380E090E008958FEF9FEF08959C016B
:10272000DA010296FC0145915491FC018591949146
:10273000A817B90758F0F9013496859194910E9431
:1027400068330E943D0C80E090E008958FEF9FEF8A
:102750000895ACE0B0E0EFEAF3E10C941133FE0130
:10276000319688E0DF011D928A95E9F78EE4E82E24
:1027700081E0F82E8F013F01AA24A394B12C28E513
:10278000822E21E0922EF70181917F018F3F09F483
:102790003EC0F894E82FE295EF70F0E021A18F7031
:1027A000A50102C0440F551F8A95E2F7CA01922F76
:1027B000982B91A392A18095892382A3789400C03D
:1027C000E2E5F1E031E0512C21912F3F79F0A22F89
:1027D000A295AF70A05EB0E08C9190E02F7002C027
:1027E000959587952A95E2F780FF81C080E0582A69
:1027F000330F8E169F0641F7F70182918F3F11F03C
:102800000E94910650EA5A95F1F7D8015C920F5F49
:102810001F4FB2E5EB16B1E0FB0609F0B4CF48E07C
:1028200050E0B3018CE492E00E945B336C01892B91
:1028300041F088E0F301ACE4B2E001900D928A959A
:10284000E1F70091550210E004591D4FC114D10465
:1028500009F44FC081E08093F9010E94960890939B
:10286000F8018093F70180919202811509F49CC0D0
:102870007E01E9E0EE0EF11C84E0D7011D928A95FD
:10288000E9F78091FA018A3008F057C04CE256E12E
:10289000B701C8010E94990B811509F473C042ED7C
:1028A00056E1B701C8010E94990B811509F46AC06D
:1028B00041ED55E1B701C8010E94990B811509F45A
:1028C00061C01092FA018091540290E044E050E01F
:1028D000B70184599D4F0E945B3321E02093F6019C
:1028E000892B09F041C02C96EFE00C942D33832FF7
:1028F0007ECF8091F901811509F4B5CFE090F70101
:10290000F090F8010E9496088E199F09059708F427
:10291000AACF44E050E06CE472E0C8010E945B334F
:10292000892B41F084E0ECE4F2E0D80101900D92B3
:102930008A95E1F71092F90196CFC090F401D090FA
:10294000F5010E9496088C199D09843F914008F07A
:102950009DCF8091F601811531F284E0F70111924B
:102960008A95E9F71092F601E0915402F0E0E459FB
:10297000FD4F89859A85AB85BC8580839183A28331
:10298000B383B1CF8091FA018F3F39F40E9496084A
:102990009093F5018093F401DCCF8F5F8093FA016F
:1029A0008A3008F490CFF2CFE0905402F12CA701C6
:1029B00044595D4F7A01F80180819181A281B381F0
:1029C00080937E0290937F02A0938002B093810255
:1029D0008EE792E00E94880A80937D0280918202B5
:1029E00090918302A0918402B0918502F7018083C7
:1029F0009183A283B383C0908602D0908702E09037
:102A00008802F09089028091F0019091F101A091EB
:102A1000F201B091F301C816D906EA06FB0609F4E3
:102A200062CFC092F001D092F101E092F201F092F7
:102A3000F3010E943D09C61AD70AE80AF90AC092B2
:102A40009402D0929502E0929602F09297024BCFB8
:102A5000A0E0B0E0EEE2F5E10C941733EC018881E0
:102A60008115F1F0813009F042C08981813029F46B
:102A70008A8123960E94BC0EF2CF823029F48A818B
:102A800023960E94D80DEBCF833029F48A812396B8
:102A90000E94620EE4CF843041F022968111DFCF94
:102AA000CDB7DEB7E9E00C9433338A81239620E07A
:102AB00030E09AE0682F6053770BAB016A30710504
:102AC00060F02115310551F3EFE9FFE03197F1F79F
:102AD00000C0000021503109F4CF929FB001939FB4
:102AE000700D11249A01260F371F8991E3CFE82F2B
:102AF000F0E0E155FE4FB490282F269526952695B7
:102B000030E0F901E156FE4FE4908770F12C082E79
:102B100002C0F594E7940A94E2F7E0FAEE24FF2469
:102B2000E0F8F901E157FE4FC490D12C082E02C005
:102B3000D594C7940A94E2F7C0FACC24DD24C0F8F7
:102B4000F901E158FE4F049110E002C01595079578
:102B50008A95E2F701701127E114F10419F081EE72
:102B60000E94D80DC114D10419F086EE0E94D80D30
:102B700060E070E08B2D0E94A20EC114D10419F008
:102B800086EE0E94620EE114F10419F081EE0E94BB
:102B9000620E0115110519F08CE20E94BC0E2196FF
:102BA0005ECFCF92DF92EF92FF921F93CF93DF938E
:102BB00000D000D0CDB7DEB7C0907502D0907602BD
:102BC000E0907702F09078020E943D096C197D092F
:102BD0008E099F0911E0643671058105910578F130
:102BE0000E944909DC01CB010296A11DB11D898318
:102BF0009A83AB83BC8380912801909129018358EB
:102C00009D4F20912701422F50E0253010F044E0E5
:102C100050E0BE016F5F7F4F0E94683383E090E019
:102C20000E949A32182F811551F00E943D0960933D
:102C30007502709376028093770290937802812FC9
:102C40000F900F900F900F90DF91CF911F91FF90F9
:102C5000EF90DF90CF9008958F929F92AF92BF92A6
:102C6000EF92FF921F93CF93DF9300D000D00F928B
:102C7000CDB7DEB77B0180E090E00E949A32182F3A
:102C8000811509F464C080911201482F50E081152C
:102C900011F041E050E0609113017091140163580C
:102CA0007D4FCE0105960E94683380908E029090F1
:102CB0008F02A0909002B09091020E943D09681985
:102CC00079098A099B09643671058105910538F4F3
:102CD0008EE792E00E94880A9D818917C1F181E008
:102CE00090E00E949A32811509F43FC080911A0148
:102CF000482F50E0853010F044E050E060911B0117
:102D000070911C0163587D4FCE0101960E9468337B
:102D10008EE792E00E94880A9D81891326C00E9456
:102D20003D0960938E0270938F028093900290937E
:102D3000910289819A81AB81BC8180938A029093B0
:102D40008B02A0938C02B0938D0281E00FC0809122
:102D50007E0290917F02A0918002B09181028983CE
:102D60009A83AB83BC831111E4CF80E040918A0247
:102D700050918B0260918C0270918D02F70140831B
:102D80005183628373830F900F900F900F900F9079
:102D9000DF91CF911F91FF90EF90BF90AF909F90E8
:102DA0008F900895A0E0B0E0E8EDF6E10C941833C0
:102DB000D82FC92F44E050E062E872E00E945B33F4
:102DC0008C01C0907902D0907A02E0907B02F09062
:102DD0007C020E943D096C197D098E099F096436A9
:102DE00071058105910518F40115110511F1809106
:102DF00020019091210183589D4F20911F01422F66
:102E000050E0253010F044E050E06D2F7C2F0E9400
:102E1000683382E090E00E949A32811559F00E9456
:102E20003D096093790270937A0280937B029093BC
:102E30007C0281E0CDB7DEB7E8E00C943433AEE13C
:102E4000B0E0E5E2F7E10C941333C0900D01D090AF
:102E50000E0181E090E090930E0180930D01812C92
:102E6000912CE12C5401F12C15C0F80125913491DD
:102E7000472D6F2D8E2D0E94EA0B0E5F1F4F73940E
:102E800086E07812F2CFA6E0AA0EB11CF394B8E067
:102E9000FB1639F08501000F111F02521D4F712CD6
:102EA000E4CFE394E0E38E0E911CF4E0EF12DACF6E
:102EB0000E94230F1A8219821C821B821E821D828D
:102EC00018861F8284EB90E09A8789870CEC11E0CA
:102ED0004AE050E0B801CE0101960E94CA33065F75
:102EE0001F4F0C3182E0180799F7CE010B962AE0AC
:102EF000DC011D922A95E9F74AE050E06CE172E0AE
:102F00000E94CA33FE01759689E0DF011D928A9501
:102F1000E9F78FEF9FEF9A8F898F87E08E8F06E218
:102F200012E07F014AE050E0B801C7010E94CA33B5
:102F3000065F1F4F0637B2E01B07A1F7D0920E01C4
:102F4000C0920D016E96EDE00C942F3380E00E944C
:102F5000210C60E087E290E00E94A6330E941F17D8
:102F60000E94110C81E00E94210C0895AAE0B0E0BB
:102F7000ECEBF7E10C941C33EAE3F2E08AE0DF01CA
:102F80001D928A95E9F72CE534E085E0D9011D9280
:102F90008A95E9F70AE514E0D801ED93FC934AE03D
:102FA00050E06CE172E0CE0101960E94783388E037
:102FB000FE013196AAE3B2E001900D928A95E1F705
:102FC00089859A85F801938382832A96E4E00C949C
:102FD0003833AAE0B0E0EFEEF7E10C94163309E3E2
:102FE00013E086E2E82E82E0F82E97E0B92E29E37E
:102FF000C22E22E0D22EAA24A3944AE050E0B701C8
:10300000CE0101960E947833F8013896DF018B2DAE
:103010001D928A95E9F789819A81D80111969C932E
:103020008E938F8112968C9312978D8113968C9329
:103030001397888514968C931497898515968C938D
:1030400015978B819C8117969C938E9316978A85F2
:1030500087FD04C01E96DC92CE921D9780FF02C0B1
:10306000F801A08681FF07C0D80118969C91189797
:10307000926018969C9382FF04C0F801908594603A
:10308000908783FF07C0D80118969C911897986085
:1030900018969C9384FF04C0F801908590619087F6
:1030A00085FF07C0D80118968C91189780621896F2
:1030B0008C93BAE0EB0EF11C015F1F4FE6E7EE16B2
:1030C000E2E0FE0609F099CF2A96EAE00C9432334A
:1030D000282FCB01283070F44AE0249F900111245E
:1030E000B90164537E4F4AE050E00E94783380E09B
:1030F00090E008958FEF9FEF0895AAE0B0E0E3E835
:10310000F8E10C941E339C0197558115914070F4A1
:10311000BE016F5F7F4F822F0E946818892B31F4A8
:1031200089859A852A96E2E00C943A338091F204DC
:103130009091F304F7CFA0E0B0E0E1EAF8E10C945D
:103140001933162FD72FC42FD22E8115A9F04093F3
:103150004D040E9496089093FC018093FB01C77078
:1031600081E001C0880FCA95EAF70E94B50DCDB77E
:10317000DEB7E7E00C94353390914D04491338C025
:10318000E090FB01F090FC010E9496089C012E1932
:103190003F097901812F9D2F0E947D18E816F906BD
:1031A00038F5D0E2DD0DCD15A1F0C77011E0812F0B
:1031B00001C0880FCA95EAF70E94C60DD83048F4BE
:1031C0008D2D877001C0110F8A95EAF7812F0E941B
:1031D000B50D802F0E94BC0ED83048F62D2D2770DB
:1031E00081E001C0880F2A95EAF70E94C60DBFCF83
:1031F000C77081E001C0880FCA95EAF7F6CFAFE04B
:10320000B0E0E5E0F9E10C940E337C01DC011496AA
:103210008C91811509F468C161E0C7010E94380DE5
:103220008C01F7018581811531F180913C049091E9
:103230003D04009701F108171907E9F0FC01FF2789
:10324000887F9927892B09F067C074E0EE0FFF1F74
:103250007A95E1F7E454FC4F85818460858311837E
:103260000083CF010E94F3121092560461E0C7015F
:103270000E94380D8C01D70115968C91811509F4A7
:10328000BEC0C80197578038910508F0EAC0D02E1B
:10329000B0E10B1708F017C18FEF93E00E9488335D
:1032A000811111C106E712E0D11039C064E0662E29
:1032B0009E012F5F3F4F5901D501E62D1D92EA95E2
:1032C000E9F74801FFEF8F1A9F0AC8010E9488336F
:1032D0008983811509F4F7C0813009F08AC068013B
:1032E00022E0C20ED11CC4010E948833782E8A834A
:1032F000811509F4E8C08FEF870D8330F0F4C60123
:103300000E9488338B83811519F0C5010E9428150E
:103310000D5F1F4F680171C0E0E0F0E09DCF011527
:10332000E4E01E0709F4CFC0C8010E9488330F5F94
:103330001F4F8111F4CFDA94B7CF8BEF870D833015
:1033400060F5480143E0840E911CC6010E94883359
:103350008B83811509F450C00C5F1F4F6801C401B5
:103360000E9488338C83811509F447C08B819C812E
:103370008130AFEF9A0710F0982F8827B6E07B16C0
:1033800031F0E7E07E1631F00E94AA2836C00E9494
:10339000622833C00E94862830C0F4E07F122DC01E
:1033A000C6010E948833982E680124E0C20ED11C09
:1033B000C80103960E948833282F911409F483C012
:1033C000811509F480C02150330B4FEF429FC0019B
:1033D000439F900D1124492D4150550B840F951F8B
:1033E000019758F0AFE9BFE01197F1F700C0000076
:1033F000F7CFC5010E942815640186015DCF6801E1
:10340000E7E5DE1AC114F1E0DF0658F56DE273E07E
:103410008C2D0E946818892B21F5C60144E0880F85
:10342000991F4A95E1F7FC01E454FC4F22812130B9
:10343000A1F520912D0330912E03232B91F02091A3
:103440002F0330913003232B61F020913103309111
:1034500032034091330350913403242B352B232B1B
:1034600021F1D70115962C90211409F441C00E3595
:10347000BCE71B0729F10F35ECE71E0741F00D35BE
:10348000FCE71F07A9F5809133018115C9F010925F
:10349000330180E00E941A1316C0223011F72091E8
:1034A000310330913203232BE1F2FC01EF53FC4F47
:1034B00020812E7F208384549C4F0E94F312D1CF11
:1034C00081E080933301809157048770811561F00A
:1034D000D70115968C91811539F08091FF0482FFF8
:1034E00003C082E00E9467042F96E2E10C942A3325
:1034F00080913301811148C0C801975581159140D1
:1035000008F0DEC05801F8EFAF22BB24A114B104CB
:10351000D1F6F801FF2724E0EE0FFF1F2A95E1F70F
:103520009F0124543C4F6901D70115968C91EF53AC
:10353000FC4F908180FB90F99083811509F4FEC1C6
:103540000E94960890933F0480933E04F601828186
:103550008F5F82838091560490915304892B8383DB
:103560008091510484834681578166857785C601A1
:103570000E94D107D60115968C9181FF5801B09217
:103580003D04A0923C049CC0280130EE431A51082F
:103590003090520480915304382A80915104382A83
:1035A00048E04416510408F05EC0980127703327A4
:1035B00081E090E001C0880F2A95EAF7211409F410
:1035C0004FC0382AD7018D919C910E94080421E0B8
:1035D00030E0F90102C0EE0FFF1F8A95E2F7FF8786
:1035E000EE872091B2033091B30339872887409149
:1035F000BA035091BB035D874C8739E3C32E33E098
:10360000D32EA12CB12C311005C0D60112968C916D
:1036100081111BC0F601838190E02E853F858223B6
:103620009323892B91F08085982F9770911101C079
:1036300087E038E04316510408F0A8C0211409F4CB
:10364000A1C0869581708111A6C0EFEFAE1ABE0AA7
:10365000FFE0CF0ED11C28E0A216B104A1F61CC0D9
:1036600080953822AFCF21107AC08091BA03909113
:10367000BB030817190781F41092BB031092BA0319
:103680001092B6031092B7031092B8031092B903C8
:103690001092B5031092B4038091B2039091B303DA
:1036A000009709F429CF38E04316510408F030C1DF
:1036B000632D0E94B007811103C081E00E941A139C
:1036C0008091F50480FFAAC10E9496083C01F70191
:1036D0008581811509F4B4C18091340182FF06C04F
:1036E00040E0B30180E090E00E9445120431FCE725
:1036F0001F0709F4A1C105312CE7120709F43BC1EA
:1037000003313CE7130709F47CC1C80190528115CD
:10371000904308F03AC11092430410924204F7011A
:103720009581911509F40DC310924D0498013057FD
:103730002332310508F005C384E090E00E94903305
:103740009093FF048093FE04F801E150F047E232C9
:10375000F10508F03CC2E251FC4C0C944533109347
:10376000BB030093BA030E943D096093B6037093B4
:10377000B7038093B8039093B9031092B5031092E6
:10378000B40320CF82FB882780F95DCF211409F490
:103790005CCF80FF5ACFD6018D909C9008151905FB
:1037A00019F4211409F451CFE885F985EC15FD05CC
:1037B00009F44BCFD6011D96ED91FC91309721F085
:1037C0008081811509F441CF632DC6010E94B007A5
:1037D000811509F43ACF81E00815190509F080E058
:1037E00082218F838114910441F0811106C0EC8500
:1037F000FD858E169F0609F028CF80E00E941A13DF
:10380000D092B303C092B20381E08093B1038FE002
:103810008A9DF0018B9DF00D1124E75CFC4F8581A2
:10382000809338032F8121110EC08114910459F027
:10383000808191819C0124503109213A310508F0A1
:1038400049C00E9467088FE08A9DF0018B9DF00DB2
:103850001124E75CFC4FC680D780C6019A9581157C
:103860009F4110F440EED42299249394C60101970D
:103870008F339E4708F0912C8FE08A9DD0018B9D5D
:10388000B00D1124A75CBC4F1996ED91FC911A97CD
:10389000309731F01B966D917C9181E009959822CB
:1038A0009114A9F08FE08A9DF0018B9DF00D1124F9
:1038B000E75CFC4F868197810E9458038093370311
:1038C00088E04816510448F4C6010E946B090E9422
:1038D000630D0BC00E94620EB6CFC6010497813AF9
:1038E000910550F48C2D0E943308BF81B11509F465
:1038F00003CE0E94630DE7CD0E94630DAFE3BCE9E8
:103900001197F1F700C000008C2D0E94D80DEDCF6B
:10391000DC012D913C910217130741F4211009C0DD
:103920001092B10380E00E941A13E6CD211409F42D
:10393000E3CDFC01808585FDDFCDF4CFF901448521
:10394000558566857785C9010E94D107D6011596F0
:103950008C9181FFB5CEC6010E94D61280913C04A5
:1039600090913D040817190709F0AACE10923D0462
:1039700010923C04A5CE90913401892F8E7F90FF48
:103980008160809334010E9426128091340180FF6F
:1039900045C00832110508F069C00E31110508F064
:1039A00076C0C80104974A9788F58091F50484FD94
:1039B0002DC0D70115968C91811509F4D6C0809140
:1039C000510490915304892B8D7F811509F464C0B3
:1039D00010924304109242048091F50481FD5CC072
:1039E00060E0C8010E944B0760E0C8010E94500ED1
:1039F000809151048D7F0E94290982E00E94670412
:103A000062CD80913401816080933401F70185811A
:103A1000811521F01092430410924204D7011596AB
:103A20008C91F801E851FC47E730F10508F077CEBA
:103A3000E05FFB4C0C944533809134018E7FA1CF25
:103A4000809134018F7E013E110531F0053E110554
:103A500031F4809134018F7D8093340196CFC80179
:103A600090528115904308F090CF59CE093311053B
:103A700058F40D32110518F40B32110539F6809106
:103A8000F50482FDC3CF95CF04361105F7CF8091A1
:103A9000F50483FDBBCF8DCF89E0F701A4E4B4E04A
:103AA00001900D928A95E1F7109247041092460416
:103AB000809142049091430408171907C9F5209199
:103AC000F50425FF35C03091340131FF02C026FFD7
:103AD0002FC020914004309141046301C21AD30ADF
:103AE0000E947D18C816D90618F58091530481FFED
:103AF00008C08091340180618093340182E00E948B
:103B000089048091530485FF08C08091340180624C
:103B10008093340180E20E948904609134016695AB
:103B2000617080914204909143040E94500ECBCC6E
:103B300080915104D0905304D82AD1FADD24D0F8D2
:103B40008D7F0E94290910934304009342047092D0
:103B5000410460924004DD0C6894D2F890913401E5
:103B6000997FD92AD092340148CF40E0B301C801EF
:103B70000E944512A8CC06E221EE41EE6AE17CE704
:103B80000E949B18A0CC07E225EE45EE6BE17CE796
:103B9000F7CF06E221EE40EE68E17CE7F1CF07E2E5
:103BA00025EE44EE69E17CE7EBCF06E221EE42EE42
:103BB0006CE17CE7E5CF07E225EE46EE6DE17CE7C0
:103BC000DFCF08E221E045EE6EE17CE7D9CF8091BE
:103BD000FE0481608093FE046091FE047091FF04F6
:103BE00084E090E00E94C4330E94C90E6CCC8091A6
:103BF000FF0488608093FF04EFCF8091FE04826011
:103C0000E9CF8091FE048460E5CF8091FE04886056
:103C1000E1CF8091FF048160EDCF8091FF0482604D
:103C2000E9CF8091FE048061D5CF8091FE0480624F
:103C3000D1CF8091FE048064CDCF0E94C90E8091C7
:103C4000FE048068C7CF8091FE048C60C3CF809152
:103C5000FF048360CFCF8091FE048E7FBBCF809125
:103C6000FF04877FC7CF8091FE048D7FB3CF809103
:103C7000FE048B7FAFCF8091FE04877FABCF809116
:103C8000FF048E7FB7CF8091FF048D7FB3CF8091EB
:103C9000FE048F7E9FCF8091FE048F7D9BCF80910D
:103CA000FE048F7B97CF0E94C90E8091FE048F7710
:103CB00091CF8091FE04837F8DCF8091FF048C7F14
:103CC00099CF8091FE04992782FF939590FB82F90A
:103CD00090FB83F97FCF8091FF04982F909590FB04
:103CE00080F990FB81F986CF9091FE04892F8F7B1C
:103CF00096FF80646FCF0E94C90E9091FE04892FB9
:103D000097FB87F9805866CF61E08EE090E00E94D3
:103D1000A63362CF60E0F9CF9091FE04892F8F7EA9
:103D200094FF806157CF9091FE04892F8E7F90FF82
:103D3000816050CF9091FF04892F877F93FF886027
:103D400059CF0631FCE71F07C1F58091530430912C
:103D5000F40430FF04C0282F2474211122C0282F1E
:103D60002A7A31FF04C0482F4171411120E032FF0F
:103D700004C0482F4878411120E033FF03C082720D
:103D8000811120E0911579F081E0211101C080E0DE
:103D900080934E0485E3211101C089E20E9433081B
:103DA000A8CD20E0DECF80914E04811521F085E37F
:103DB0000E9467089ECD89E2FBCF07372CE71207E8
:103DC000F9F008373CE7130731F19801205E3245DE
:103DD0002032310528F591113BC00F7181E090E050
:103DE000AC0102C0440F551F0A95E2F78A01642F07
:103DF00083E090E00E94A633802F0E94B00363CB43
:103E000081E0911551F00E94B60343E062E081E049
:103E10000E943C0458CB82E0F4CF0E94C203F5CF4D
:103E20009115B1F00A355CE7150709F49FC008F059
:103E300076C001309CE7190709F496C00330ACE75F
:103E40001A0709F48BC00115BCE71B0709F479C0F8
:103E5000F70187819085009709F48CC00E948C053A
:103E6000082FD92E86E0F701DE01119601900D9200
:103E70008A95E1F7F701B580C680C2949FE0C92218
:103E8000809157048770811501F19B2CB114F1F0DA
:103E90008D2D807F803461F080E2800F8830A8F023
:103EA0008D2D807E803221F4023078F0C11469F0CB
:103EB0008091FF0482FF09C082E00E946704809124
:103EC00057048770992493948111912CAD2CA2945E
:103ED0008FE0A822F8E0AF1609F48FC129E0A216FE
:103EE00008F096C034E0A31608F05BC01D2D1F70CB
:103EF00042E0A41608F49FC08D2D807F803211F01F
:103F00001295107F011509F4CDC0013009F437C1B5
:103F1000B11409F443C1C11409F4DEC0A0C00B35CB
:103F2000ECE71E0729F18091FF04002482FF03942F
:103F3000802D0C35FCE71F0709F08ACF0E94D30BB8
:103F400087CF0E94C90E2FEF34E34CE02150304060
:103F50004040E1F700C000000E94AE096FEF7FEF24
:103F600080E090E00E94C4330E94EB0E81E0E6CF37
:103F700080E0E4CF8581C080D180811569F0C601E1
:103F80000E94CC0C182F682FC6010E94D203B601E4
:103F9000812F0E94AF0C62CFC6010E940804182F27
:103FA000F6CF54E0A51609F40BC1AA2DA850BB0BFF
:103FB000149718F40E94D607912C802F9D2D0E94F3
:103FC0008C03811541F0B11409F41FC2C11409F426
:103FD00013C2109202059114B1F08091570480FD34
:103FE00012C0D70115961C928695869586950E94DB
:103FF000B603C7010E94FF188091570486958695E5
:1040000086950E94C20360E0C7010E94380D6CCA09
:1040100089E0A81609F461C186E08A0D8F708230AC
:1040200020F6023F09F069C18D2D8F71B11062C178
:104030000E94B603BACF90E1D91610F01295107F06
:10404000B114B9F0111559F080E2800F883010F0EA
:10405000011109C0812F0E9483040E94630D802FEB
:104060000E94D80DA2CF80915604812B80935604D4
:10407000F4CF802F0E94620E111509F496CF80E2D2
:10408000800F883010F0011104C0812F0E94890434
:1040900006C01095809156048123809356040E9497
:1040A000630D83CF8091FF0482FD12C0B11449F0EB
:1040B000111529F0812F0E9483040E94630D80E076
:1040C000CFCF80E00E94620E111509F46ECFDDCFD4
:1040D000B11491F1C11004C0812F0E94B50D65CFBC
:1040E000B1E0CB1211C080905104812F88211817A4
:1040F00009F45BCF0E9496089093500480934F047C
:10410000812A8092510451CF8091F604823008F4C4
:104110004CCFC8124ACF812F0E94B50D812F0E942B
:10412000130980915204912F9823191709F43DCF58
:10413000812B8093520439CFC11012C0812F0E946D
:10414000C60D812F0E94130980915204912F98234C
:10415000911509F42ACF109518231093520425CFF6
:104160008091F604823008F420CFE1E0CE121DCF1A
:10417000809153048123811509F417CFDFCF8091FB
:10418000FC04B11421F08C1508F40FCFA5CFC8168C
:1041900008F00BCF812F0E94C60D07CFC114D1F3B9
:1041A0008091FA049091FB04093321F08091F80486
:1041B0009091F9040E942C0B802F0E94620EF5CE84
:1041C0008D2D869586958370811569F0813009F073
:1041D000ECCE802F9D2D9370B11002C080E090E056
:1041E0000E940D08E2CE802F9D2D9370B11002C069
:1041F00080E090E00E94E707D8CE8D2D837081117A
:1042000033C0B110D2CE402F429546954770440F2F
:10421000440F802F8F70042E01C0880F0A94EAF794
:10422000202F207104FF07C02FE030E001C0220FD3
:104230004A95EAF720953D2D369536953370323004
:1042400071F0333051F04091D804313029F0822B95
:1042500084230E94B003A9CE842B822BFACF822B19
:104260009091D8048927F5CFB11459F1D0FE9DCE95
:10427000402F429546954770440F440F802F8F7012
:10428000042E01C0880F0A94EAF7202F207104FF42
:1042900007C02FE030E001C0220F4A95EAF72095D1
:1042A0003D2D369536953370323091F0333071F0C4
:1042B0004091D904313049F0822B84230E94B3030A
:1042C00074CE823008F471CED3CF842B822BF6CFFC
:1042D000822B9091D9048927F1CF1D2D1F70B11425
:1042E00029F0812F0E94B603802FF7CE802F0E94E5
:1042F000C60D812F0E94C20358CE60F4003FB9F072
:10430000013F81F0B11409F472C0C110A8CE8D2D07
:104310008F718ECE033FF9F0043FA1F78091FF0427
:1043200082FD25C08D2D8F71B11421F381CE809136
:10433000FC04B11461F0C81608F037CE2D2D2F7192
:1043400081E090E001C0880F2A95EAF7C2CF8C1572
:1043500008F42BCEF3CF80E0B11409F4AFCF81E0A5
:104360009D2D9F7101C0880F9A95EAF7A7CF809184
:10437000F604823048F1B114C9F090915704977057
:10438000943059F410925704109259041092580422
:104390008D2D8F710E94C2030DCE63E0C81608F008
:1043A00009CE8D2D8F710E94FB0804CEC81640F0F7
:1043B00010925704109259041092580464E0F1CFFF
:1043C00081E00E946704F6CDB11431F063E08D2DD9
:1043D0008F710E94FB08E9CD81E00E946704F2E042
:1043E000CF1608F4E2CD82E00E946704DECDC11052
:1043F000D7CE8D2D8F717ECF80915504809354043C
:104400008091530480935504E6CD40E060E08981BB
:104410009A810E941A0D8A879B8710915304C114B8
:1044200029F01092020510935504D5CD8091000516
:10443000909101052A853B8528173907A1F78091BE
:10444000F70483FFEECF80910205811551F380912F
:1044500054040E94B50D802F0E94BC0E809154041C
:104460000E94C60DDECFA0E0B0E0E9E3F2E20C94DA
:10447000193380911803803108F049C080911703E7
:10448000811509F444C0C091C90289E0D82E8091F9
:10449000C8028C17E1F1EC2EF12CDC9EE001112416
:1044A000FE01E653FD4F84818115B1F19181809128
:1044B0001303981331C090818091120398132CC07C
:1044C0008581811129C0028113818091140390910B
:1044D0001503081B190B60E082E193E00E94380D80
:1044E0000E947D1808171907B8F4809118038F707F
:1044F000806180931803C053DD4F88818F70806185
:10450000888382E193E00E94FF180E945D04CDB78A
:10451000DEB7E7E00C943533E7012196C770B7CFDB
:10452000AFE0B0E0E6E9F2E20C9411338C0186E0F2
:10453000F801DE011A9601900D928A95E1F7D801F3
:1045400015966C90159714965C9082E1A82E83E0E6
:10455000B82E80911603811118C0511499F061147E
:1045600009F4CBC1C8010E94060D811509F4C5C12B
:1045700089E0F801A2E1B3E001900D928A95E1F79C
:104580000E943322FF24F39451C0F801C08071804F
:10459000E280F38060E082E193E00E94380DD090E9
:1045A000170380911403909115034701881A990A03
:1045B00060E082E193E0D11409F444C10E94380D17
:1045C0000E947D188816990608F0F7C05114D1F2A0
:1045D00080911303D80111969C91B0901803B0E11B
:1045E000BB1608F0A1C0F62C981325C090911203B9
:1045F000F801808198131FC02091190330911A038C
:104600008781908528173907B1F4611078C08B2D08
:104610008F7080618093180382E193E00E94FF18FD
:1046200080911803D80116968C93F12C8F2D2F961C
:10463000EFE00C942D33611062C0E091C9028091CB
:10464000C802AE2F99E0A81302C099E02AC02A2F11
:1046500030E09A9FD0011124A653BD4F11964C9182
:104660001197741207C04C91C41204C015964C9156
:1046700041114DC1D9011196A770E5CF2E2F30E021
:104680009E9FF0011124E653FD4F4181741206C034
:104690004081C41203C045814111C7CFF901319651
:1046A000E7708E13EBCF8A859B850E94F70C292F2C
:1046B00022952F70903448F02A5F2F702230C8F076
:1046C000C8010E94FF18FD2CB1CF9F70223038F036
:1046D000911551F0F8019681903130F4A7CF9115E2
:1046E00019F0811509F4A2CF805E883008F49ECFBE
:1046F000E7CF803F08F49ACF815F8330F7CF809176
:1047000018038160809318038091F70481FD8DCF99
:1047100082E193E00E94FF1889E0E2E1F3E0DF012B
:104720001D928A95E9F781CF981321C090911203C9
:10473000D8018C9198131BC02091190330911A0352
:1047400017968D919C9118972817390781F461105D
:104750000EC01696BC92C8010E94FF1889E0F801AD
:10476000A2E1B3E001900D928A95E1F70BCFC80169
:104770000E94060D811509F4C0C0611409F4BDC082
:1047800080911803803208F4F3CE80911203909147
:1047900013039A838983FC82EB82809116038D83B5
:1047A0001E82BF828091190390911A03998788878E
:1047B000CE0101960E94FF18DBCED0901803B0E125
:1047C000DB1608F4A5CF511409F4DCCE9091130345
:1047D000F801818198131AC0909112038081981377
:1047E00015C02091190330911A03878190852817ED
:1047F000390761F461100AC0D682C8010E94FF180F
:1048000089E0D5011D928A95E9F7BCCEC8010E94C6
:10481000060D811509F471C0611409F46EC0809110
:104820001803803208F4A4CE8091120390911303F0
:104830009A838983FC82EB82809116038D831E828A
:10484000DF82B0CF0E94380D0E947D18881699062D
:1048500008F057C0511409F495CE611409F44DC005
:1048600090911303F801818198133DC09091120338
:104870008081981338C02091190330911A038781E1
:1048800090852817390779F5C0901403D090150347
:1048900060E082E193E00E94380D8091F70482FD90
:1048A0005DCFEC18FD088091F2049091F304E816B6
:1048B000F90608F053CF8091180380FD4FCF803167
:1048C00008F44CCFD80116968C931697982F907FAA
:1048D000903F09F440CF982F907F905F8F70892B85
:1048E00016968C9338CFC8010E94060D811140CED8
:1048F00080911803816080931803C8010E94FF18FB
:1049000041CE89E0F50111928A95E9F78ECE90911A
:10491000F70490FF9ACEFCCEA2E1B0E0E2E9F4E227
:104920000C941C330A871B872C873D874E875F8733
:10493000688B798B8A8BCE010A960E949022811116
:1049400028C02091C8023091C90289E0FE013A9640
:10495000DE01119601900D928A95E1F78E85811501
:10496000C1F0822F90E001968770992738171906B9
:10497000D9F099E0929FD0011124A653BD4FFE01BA
:10498000319601900D929A95E1F78093C8020E94AA
:104990005D0419E08091C9029091C802891312C088
:1049A0006296E4E00C9438330E94C90E1092C8025B
:1049B0001092C90289E0E2E1F3E0DF011D928A95DD
:1049C000E9F7E7CF189FC001112486539D4F0E943D
:1049D0009022811529F38091C90290E00196877099
:1049E00099278093C902D6CFEF92FF920F931F931E
:1049F000CF93DF938091D504E0911802CDE081112F
:104A000031C0CDB7DEB7E6E00C943633D1E0DE0F2F
:104A1000D0931802EE2EF12CCE9FF0011124E35911
:104A2000FB4F84818115E9F087819085892B21F4E2
:104A300081859285019659F400811181228133810B
:104A4000448155816681778180850E948C24CE9D2A
:104A5000F001CF9DF00D1124E359FB4F1482109209
:104A60005604ED2F8091D504E81780F21092D504FA
:104A700010921802C6CFA4E0B0E0E1E4F5E20C9495
:104A80000F3320916C04298397E0992EEE24E39450
:104A9000F12C3DE0332E44E0542E66246394809143
:104AA0006B049981891308C00E94F4240E94710745
:104AB0002496E1E10C942B337981672F70E07C839D
:104AC0006B83FB01EE0FFF1FEF59FB4F808191813C
:104AD000989ED001999EB00D1124FD01E65AFB4F1E
:104AE000FA83E983248121115BC07090D504EDE63F
:104AF000F4E040E050E0812C471508F04FC0A3845B
:104B0000B484A981BA81CD90DC900FEF1FEF412CC6
:104B1000242D30E0B601640D711D640D711DDB01A3
:104B20006D917C916115710539F0A616B70609F0F3
:104B3000980143948901ECCF0F3F1007D1F1B701E1
:104B4000002E01C0660F0A94EAF7862AB701042CEA
:104B500002C0660F771F0A94E2F79B0121503109CA
:104B60008216130629F5349EF001359EF00D1124AE
:104B7000E359FB4F989ED001999EB00D1124A65A7F
:104B8000BB4F12962D913C91139730872783548207
:104B9000108211829287818715966C920E948407F9
:104BA0008B819C8101969A8389838370898377CFD7
:104BB00014824F5F5F4F3D969FCF1092D7041092A3
:104BC000D6041092350180916B0480936C040E948E
:104BD00071070E94F42408952F923F925F926F9282
:104BE0007F928F929F92AF92BF92CF92DF92EF927D
:104BF000FF920F931F93CF93DF93CDB7DEB76897E4
:104C00000FB6F894DEBF0FBECDBF4B8B5C8B6D8BA8
:104C10007E8B8F8B692F988FD92E811509F475C0E3
:104C200040E08B899C890E941A0D8C01D11449F0B7
:104C3000109202059093010580930005109256048E
:104C40000AC080910005909101058017910719F421
:104C500081E080930205188A198A1A8A86E0FE018B
:104C60007396DE011A9601900D928A95E1F7809174
:104C7000FF0482FF21C08091DC049091DD04892B28
:104C8000D9F00E9496082091580430915904821B53
:104C9000930B2091DC043091DD048217930738F0E8
:104CA0008091570482FD03C082E00E9467040E9445
:104CB000A20881110E9491048E858115D1F061E0D6
:104CC000CE010A960E94380D61E0CE010A960E943C
:104CD000380D61E0CE010A960E94380D7C018035C6
:104CE0002CE79207B1F48F85811519F181E080934B
:104CF00035010A851B852C853D854E855F85688934
:104D000079898A890E948C24B2C0911509F4A3CFB5
:104D100095CF81354CE7940731F48F85811549F0A3
:104D20000E94DD25E6CF82359C4719F48F858111DD
:104D30001BC060915A0470915B04CC24CA94DC2C93
:104D400090E0292F30E0FB01E90FF11DE90FF11D83
:104D5000408151814115510561F0E416F50609F0D5
:104D600096019F5F6901EDCF809135018111D8CF08
:104D7000BDCF6FEFC616D60609F42BC160915E0455
:104D800080913501611180E0BF8490905F04209193
:104D90006004B11409F4FCC0811509F4F9C0A090B5
:104DA000F004B090F104911014C041E050E001C053
:104DB000440FCA94EAF7242B2093600420916904DD
:104DC00030916A042A153B0520F4B0926A04A0923F
:104DD000690421E030E0D90102C0AA0FBB1F9A95F7
:104DE000E2F7CD010197209160042817190699F484
:104DF0000091D6041091D7040115110509F44FC094
:104E00000E949608801B910BA816B90608F047C0AF
:104E100081E080935E040E9496089093D70480936B
:104E2000D6048091D504883010F591E0980F9093C6
:104E3000D50499E0FE013A96DE01119601900D929B
:104E40009A95E1F7BDE08B9FC001112483599B4FD8
:104E500029E0FE013196DC0101900D922A95E1F7DF
:104E60002FEF3FEFFC0132872187F486E3866896B7
:104E70000FB6F894DEBF0FBECDBFDF91CF911F916B
:104E80000F91FF90EF90DF90CF90BF90AF909F90E9
:104E90008F907F906F905F903F902F9008959091AA
:104EA0006C0480916B04A0905A04B0905B04392F7D
:104EB000E0E0F0E017E001E0981314C030936C04D8
:104EC000EA55F44009F4A7CF90E0FC01EE0FFF1F74
:104ED000EF59FB4F118210820196837099278093BE
:104EE0006B0499CF492F50E0DA01AA0FBB1FAF59CD
:104EF000BB4F6D917C91169FD001179FB00D11246F
:104F0000BD01665A7B4F1B01DB018D909C90612C8B
:104F100020E0712CB401670D711D670D711DDB015F
:104F20006D917C916115710571F5611471F1EAE57E
:104F3000F4E0271508F0F1010483B4E0EA35FB073B
:104F400009F4BCCF931305C0E215F30511F43F5FDC
:104F500033704F5F5F4F942F9370AECF55245394AF
:104F60006C157D0509F0512C65282F5F6501C20E77
:104F7000D11CC20ED11CD601CD90DC90C114D1043D
:104F800069F77394C7CF20E0F1CFE0E0F0E0E1CF24
:104F900030E0911033C041E050E002C0440F551F93
:104FA0009A95E2F7415051092417350701F180E045
:104FB00021E030E001C0220FCA94EAF720959091D9
:104FC0006004292320936004182FB11419F0811173
:104FD00022CF10E090916C0480916B04981709F433
:104FE00045C00E943B25113009F441CF82CE6115A6
:104FF000F9F280E090E00E948407D9CFC9010C2C1F
:1050000002C0959587950A94E2F7A901415051098C
:1050100024233523232B41F580FF26C080915C0497
:1050200090915D04892BE1F087E0FE013196DF016C
:105030001D928A95E9F70E9496089C018B839C83B8
:1050400084E08D8390915C0480915D04792F988732
:10505000898709811A8144E05E816F810E948C24D6
:1050600010925F04892DA4CF8170A2CF0E94F424F6
:105070001092D7041092D6040E947107B4CFA6E014
:10508000B0E0E5E4F8E20C941C330E9496088C0131
:1050900080919C0290919D028017910779F019826E
:1050A0001A820E949608BC0149815A8180E090E0F2
:1050B0000E94EC2510939D0200939C022696E4E04A
:1050C0000C943833A6E0B0E0E8E6F8E20C941E3326
:1050D0009C019093990280939802211580E23807F1
:1050E00038F4C9010E943A0E2696E2E00C943A3355
:1050F00080EF89838A830E9496088160BC01498180
:105100005A8181E091E00E94EC25EECFA6E0B0E06C
:10511000ECE8F8E20C941E339C0190939902809382
:105120009802211580E2380738F4C9010E948C0EDC
:105130002696E2E00C943A3380EF89838A830E94BA
:1051400096088160BC0149815A8181E090E00E940B
:10515000EC25EECFCF93DF93D82FC92F0E94622882
:105160008091F8049091F9040E942C0B8D2F9C2FB4
:105170000E948628DF91CF9108950F931F93CF93BC
:10518000DF938C01862F6DE273E00E946818892BF3
:10519000A9F4C0912D03D0912E03209779F0F80146
:1051A0008281833051F4CE010E94AA28CE010E9450
:1051B000AA28CE010E94AA2801C0D8F7DF91CF917A
:1051C0001F910F9108950F931F93CF93DF938C013D
:1051D000EB016DE273E08C2F0E946818892B09F0B7
:1051E0005AC0FE01FF27D80112968C911297EC5BF2
:1051F000FD4F8130A9F415968C9182FD51C080FF3E
:105200004FC082E0808380912F03909130030097FC
:10521000B9F480912D0390912E030097E1F110C015
:105220008230B9F515968C9182FD28C080FD0BC0A7
:1052300083E080838091310390913203009701F1E4
:105240000E94622828C084E080838091330390917B
:1052500034030097A9F780912D0390912E030097B6
:1052600011F10E94AA2880912F039091300300979A
:1052700039F780912D0390912E03E2CF85E0808352
:1052800080912D0390912E03009729F00E94AA2867
:10529000F0CF86E08083DF91CF911F910F91089529
:1052A00081E08083B6CF80912F0390913003B5CFFA
:1052B0000F931F93CF93DF938C01EB016DE273E0AB
:1052C0008C2F0E946818892BA1F48091F80490918A
:1052D000F9040E942C0BDD27CC5BDD4F8881F8019F
:1052E000128218828330F1F048F4813059F0823014
:1052F00081F0DF91CF911F910F9108958430B9F023
:105300008530B9F780912D0390912E03009789F392
:1053100006C080912F0390913003009799F30E946B
:105320008628E7CF8091310390913203F6CF8091A8
:10533000330390913403009791F720912D0330911E
:105340002E0380912F039091300321153105F1F246
:10535000009729F7C901E3CFCDB7DEB7AA970FB6FB
:10536000F894DEBF0FBECDBF85B7806885BF85B717
:10537000806885BF84B7877F84BF0FB6F894A895EF
:1053800080916000886180936000109260000FBE81
:1053900080E890E00FB6F8948093610090936100EC
:1053A0000FBE81E0809332018FE896E09093C701B1
:1053B0008093C6010E94B9060E94B6170E94E917A1
:1053C0000E945A0C0E94690A0E94D10A8091E20050
:1053D00084608093E200789480917402811599F042
:1053E0008091E9001091EC008F70179511271795A7
:1053F000182B1092E9008091E80083FD0E94560F5F
:105400001F701093E90082E084BD93E095BD9AEF90
:1054100097BD80936E0010929402109295021092A4
:105420009602109297020E944A0D811102C00E94BA
:10543000A6178091D80080618093D8002AE12A9530
:10544000F1F700C08091D900182F117080FD04C0C1
:105450000E94690A109274021093920210939302B0
:105460001093000111110E94AC31809100018091D4
:10547000000191E08927880F880F8093550294E0FE
:10548000981B9093540284E90E94910686E60E943C
:10549000910687E90E94910686EC0E94910602E53A
:1054A00011E0E8E5AE2EE1E0BE2ED8018D918D0130
:1054B0008F3F11F00E949106A016B106B1F788E067
:1054C000ECE6F2E0DF01282F1D922A95E9F7ECE4E3
:1054D000F2E0DF011D928A95E9F780E090E00E94FA
:1054E0009033853E9E4F21F40E944A0D811163C086
:1054F00065EE7EEF80E090E00E94C43360E082E0E1
:1055000090E00E94A63381E08093D80461E083E0BC
:1055100090E00E94A63360E074E184E090E00E9495
:10552000C43360E086E090E00E94A63360E087E04C
:1055300090E00E94A63340E050E0BA0188E090E09D
:105540000E94B83360E083E290E00E94A63360E0FE
:105550008CE090E00E94A63360E08DE090E00E9435
:10556000A63319821A821B821C821D821E821F8210
:10557000188648E050E067E170E0CE0101960E9495
:10558000963340E050E0BA018FE190E00E94B833DA
:1055900080E00E94210C0E94A61740E050E0BA0172
:1055A0008FE090E00E94B83340E050E0BA0183E120
:1055B00090E00E94B83382E090E00E9488338093AC
:1055C000580284E090E00E9490339093FF0480930F
:1055D000FE040E94A913EFEFF6E721E0E150F0404E
:1055E0002040E1F700C000000E94A913E09193025F
:1055F00081E0E827EE0FEE0FF0E0E459FD4F8081E7
:1056000081FF08C06FEF7FEF80E090E00E94C4331D
:105610000E94AE0983E090E00E9488330E94B003AC
:1056200080919202811102C00E94AF3181E091E02D
:105630009093BF028093BE0278E1672E712C809117
:105640007402853049F480917402853009F450C0A9
:105650000E94C90E0E94D6070E94A91309E512E014
:105660006CE6A62E62E0B62ED501F80191918D91DF
:1056700022E0E136F20709F46DC09817B9F32090E3
:105680009202912CD5018D905D01F80131908F012E
:10569000381439F13824512C44244394832D842127
:1056A0008115C1F02114B1F059829A820E949608A6
:1056B0009C838B83F1E0FD8391E0882D842181110F
:1056C00001C090E09E8349815A816B817C818D81EC
:1056D0000E94EC255394440C26E05212DFCFF801CF
:1056E0008292939438E09312CDCF0E94490936C03C
:1056F00080917402843011F11092560230E40FB69A
:10570000F894A895609260000FBE3093600083B754
:10571000817F846083BF83B7816083BF78948895DD
:1057200083B78E7F83BF0FB6F894A89580916000F1
:10573000886180936000109260000FBE0E94A913E0
:10574000ECE6F2E081918111E5C342E0E437F40731
:10575000C9F779CF981393CF0E943F288091920286
:10576000811509F4AFC00091B4031091B503011580
:10577000110591F18090650290906602A0906702F9
:10578000B09068020E943D09681979098A099B094D
:105790008090610290906202A0906302B0906402D7
:1057A000681579058A059B05B8F0C8010E943A0E74
:1057B0001092B5031092B403109265021092660223
:1057C00010926702109268021092610210926202B7
:1057D0001092630210926402A0903C04B0903D04C9
:1057E000A114B10439F180903E0490903F040E94CE
:1057F00096088C0108191909C5010E947D188017A7
:105800009107C0F420913C0430913D04C9019927CF
:10581000287F3327232B09F09EC054E0880F991F5F
:105820005A95E1F784549C4FDC0115962C9122FF88
:105830000E94F31280913501811519F10091D6046F
:105840001091D70401151105E1F00E949608801B04
:10585000910B2091690430916A042817390788F464
:1058600090916C0480916B04981709F477C00E94A2
:105870003B2510926A04109269041092D70410928A
:10588000D6048091F50480FF1DC08091340182FF11
:1058900019C00E9496086C018091400490914104C7
:1058A0009601281B390B80910B0190910C01281750
:1058B000390740F041E0B6018091420490914304E1
:1058C0000E9445120E94D60790916902891721F023
:1058D000809369020E943D0980917402843009F02E
:1058E000AECE83E08093E9008091E80082FFA7CEEE
:1058F0008091E80090E085FF0BC00E94380A40E2EA
:10590000A42EB12C8E010F5F1F4F8115C9F191E0BC
:105910008091E8008B778093E800911509F48FCE91
:1059200000919A0210919B02E98101151105B1F1D4
:10593000EE3F09F056C08A81833020F085508330D5
:1059400008F04FC0EA81EE3008F04BC0F0E0E95EAD
:10595000FB4C0C94453380E090E066CF0E94F42429
:105960001092D7041092D6040E9471078ACF8091BA
:10597000F100F80181938F01F1E0AF1AB10839F21B
:105980008091E80085FDF3CF8091E8008B778093CC
:10599000E8000E94380A811599F3B9CFE43150F438
:1059A000E11551F0E150E33138F4F0E0EB5DFB4CF0
:1059B0000C944533EE3F31F28FEFD8C21A8289E062
:1059C0008B830FC08A818230A9F08330E1F081306F
:1059D00099F70E943D090E944B336B837C838D8332
:1059E0009E8340E250E0BE016F5F7F4F82E00E94E5
:1059F0003A0B25CE87E290E00E9488331B821C82FE
:105A00001D828E83EECF80910D0190910E01892B26
:105A100041F388E0ECE6F2E0DE01139601900D928E
:105A20008A95E1F7DECF8A81823031F66B817C8105
:105A30008D819E810E944B3387E290E00E94A633C5
:105A4000D0CF4C816B818A810E94800C9827892756
:105A500098279E838D83C5CF2D813E8132272327B2
:105A600032274C816B818A810E94EA0BBACF0E9457
:105A70001F17B7CF80E18A83B4CF81E08A838AE899
:105A80009FCF8C81A82EB12C8D3108F0AACF0A812E
:105A90001B81102701271027A00EB11E4E0125E003
:105AA000820E911C0A151B0509F49BCF80E00A3871
:105AB00031E0130728F4C8018A589D4F0E948833AB
:105AC000D4018D934D010F5F1F4FECCF80910D01DD
:105AD00090910E01892B09F484CF8C81882E912C12
