:100000000C9494030C94B1030C94B1030C94303110
:100010000C94B1030C94B1030C94B1030C94B10390
:100020000C94B1030C94B1030C945D2F0C944530E7
:100030000C94122F0C94B1030C94B1030C94B103E3
:100040000C94B1030C94B1030C94B1030C94B10360
:100050000C94B1030C94392F0C94B1030C94B1039C
:100060000C94B1030C94B1030C94B1030C94B10340
:100070000C94B1030C94B1030C94B1030C94B10330
:100080000C94B1030C94B1030C94B1030C94B10320
:100090000C94B1030C94B1030C94B1030C94B10310
:1000A0000C94B1030C94B1030C94B1030501090243
:1000B000A10185020901A1000509190129081500FE
:1000C0002501950875018102050109300931158165
:1000D000257F95027508810609381581257F9501D0
:1000E00075088106050C0A38021581257F95017572
:1000F000088106C0C005010980A101850319012AF4
:10010000B700150126B700950175108100C0050CD8
:100110000901A101850419012AA002150126A002E6
:10012000950175108100C005010906A1018506052C
:100130000719E029E71500250195087501810205D9
:1001400007190029EF1500250195F07501810205B9
:10015000081901290595057501910295017503910D
:1001600001C00660FF0961A1010962150026FF00B8
:100170009520750881020963150026FF00952075FA
:10018000089102C005010906A101050719E029E748
:1001900015002501950875018102950175088101F9
:1001A0000507190029FF150026FF0095067508812F
:1001B000000508190129051500250195057501910E
:1001C00002950175039101C00000000000000000CD
:1001D000000000000000000000000000000000001F
:1001E0000000000000000000000000007E0F00D4AE
:1001F000FFFFFFC7000000780000000000000000C3
:100200002A2B280000000000000000000000000071
:1002100000000029000000002C1E3420212224347C
:100220002627252E362D3738271E1F20212223244E
:1002300025263333362E37381F0405060708090AEA
:100240000B0C0D0E0F101112131415161718191A86
:100250001B1C1D2F3130232D350405060708090A04
:100260000B0C0D0E0F101112131415161718191A66
:100270001B1C1D2F3130354C09025B00030100A00F
:10028000FA09040000010301010009211101000124
:10029000224400070581030800010904010002034C
:1002A000000000092111010001222200070582033C
:1002B00020000107050303200001090402000103D7
:1002C00000000009211101000122B6000705840386
:1002D0002000011201000200000008534601000145
:1002E00000010203011C037600690061006C003A02
:1002F00000660036003400630032006200330063A1
:100300000000000C0343006F0072006E00650000E7
:1003100000100366006F006F007300740061006ED0
:10032000000000040309042B0014001A0008001543
:10033000001700E00004001600070009000A00E1B1
:10034000001D001B00060019000500000000000051
:1003500000E300777C2C002A00130012000C001828
:10036000001C00340033000F000E000D000B0029AC
:1003700000380037003600100011000000000000B7
:1003800000E600787C28002B001E001F00200021C2
:10039000002200E00000000000000000000000E17A
:1003A000000000000000000000000000000000004D
:1003B00000E30001002C002A00270026002500246D
:1003C000002300000000004F0052005100500000C8
:1003D000000000000000000000000000000000001D
:1003E00000E600010028002B001E021F022002214F
:1003F000022202E00000000000000000000000E116
:1004000000000000000000000000000000000000EC
:1004100000E30001002C002A002702260225022406
:100420000223023500310030002F002E002D003550
:1004300002310230022F022E022D020000000000C5
:1004400000E60001002800007C0000000000000021
:10045000000000207823782578277800000000210C
:10046000782478267828780000000000000000003A
:1004700000E30001002C000000000000000000006C
:10048000000000000000000000000000000000006C
:10049000000000000000000000000000000000005C
:1004A00000E60001002800010001006C047A1590AC
:1004B0001500000200020068047A15901500000380
:1004C0000001006D047A159015000004000200522E
:1004D000047A1590152C07050001006E047A15901A
:1004E0001500000600020054047A1590150000075C
:1004F0000002006A047A1590150000080001006FE0
:10050000047A15901500000900020056047A15902F
:100510001535070A00020058047A15901535070BA7
:100520000002005A047A15901535070C0002005C91
:10053000047A15901535070D0002005E047A1590B7
:100540001535070E00020060047A15901535070F67
:1005500000020062047A159015350710000200644D
:10056000047A15901535071100020066047A15907B
:100570001535071200020070047A1590150000135B
:1005800000020072047A1590150000140001007436
:10059000047A15901500001500000000005A07E6C7
:1005A000100000FD377A585A000004E6D6B446021F
:1005B00000210116000000742FE5A3E0042F014282
:1005C0005D003D8889C65436C3174FE4DCCBB3DFEA
:1005D0006320E7D71739D83D5F52C90BECB7E6D592
:1005E000195224B0736759B3E0B456C74788C96538
:1005F00020CF4A3C940C015E29865C8E1FD2901459
:1006000070DD8177B2096EB5F6AEE987F3FD6E86CF
:1006100028D433CFB875786A02A926DEE8E6250B20
:10062000F2F12FEB95EF757127C27F9195E2635A36
:10063000B0D245B872C0B554D7004EDE62BA2013AE
:10064000945BD1FF5921584935658A11E5CA1A844E
:1006500001C66412A7BCC461E80A8B8F1814972CDA
:10066000D485C2CA11139D8194454D5141C1135A7D
:1006700007F3F59C8A2EB089D73F3EF2C32110C301
:1006800096AA6256BA70B31061455FB111971836D9
:10069000BB16666F7B478FC44223D0767E3FA7ECA4
:1006A000EA0CBF2774C309BD093C35A8EED8AEC714
:1006B000E9FF0F2F64DF72C5CDF6701A8177ECEF7A
:1006C000634989711EFAEC985A059B0A0F6BC0B3F7
:1006D00082F93085B0A8A630E1DE91E0E101A42FD7
:1006E000EECFFAB4CC09FA55E9DC3EB4782343F5F1
:1006F000F745FEAA6A7F620EBDEBFB2CF315BF38EF
:100700000D4959E00000005614AADD3187545C0001
:1007100001DE02B0080000C0E5C082B1C467FB0280
:100720000000000004595A0011241FBECFEFDAE088
:10073000DEBFCDBF11E0A0E0B1E0E8E7F7E602C020
:1007400005900D92AE3CB107D9F724E0AEECB1E0D4
:1007500001C01D92AB37B207E1F70E944E280C94FE
:1007600047330C9400009C019A9581159F4118F520
:10077000F32FF270EE27832F8170732F747066272A
:10078000532F5870442734FF0CC08295807FEF2B85
:1007900009F08062672B09F08064452B69F080685E
:1007A0000895EF2B09F08260672B09F08460452BD8
:1007B00019F08860089580E00895CF93DF93EB01EE
:1007C0000E94B303FE010995DF91CF910895282F70
:1007D00092959F70963099F060F4925F9F7092307E
:1007E00030F4203FB1F038F481E0283E38F080E06A
:1007F00008959A5FF3CF81E0243FC9F7089591E00F
:10080000813F09F090E081E0283E08F080E0892BEC
:10081000089581E008958093080408958093090461
:10082000089521E030E001C0220F8A95EAF7809117
:100830000904822B0E940E04089521E030E0A901F2
:1008400002C0440F551F8A95E2F7CA018095909126
:10085000090489230E940E040895292F983090F5E9
:10086000863080F590E036E0239F800D911D1124A5
:10087000282F277041E001C0440F2A95EAF723E0B2
:10088000969587952A95E1F7FC01EE0FFF1FE80F7B
:10089000F91FE753FD4F20E030E070E05191DF0198
:1008A000CB01022E02C0969587950A94E2F78170DB
:1008B00081958527842385278E932F5F3F4F233093
:1008C000310561F70895292F983078F5863068F55D
:1008D00090E036E0239F800D911D1124682F6770F2
:1008E00023E0969587952A95E1F7FC01EE0FFF1F0F
:1008F000E80FF91FE753FD4F40E050E080E0219101
:1009000030E0062E02C0369527950A94E2F7217052
:100910003327042E01C0220F0A94EAF7822B4F5F7F
:100920005F4F4330510559F7089580E00895909145
:10093000090421E030E0F90101C0EE0F8A95EAF7E1
:10094000D90102C0AA0FBB1F6A95E2F7EA2B01C0CA
:10095000220F4A95EAF7892F8E23E81305C0892FC5
:10096000822B0E940E0408952095822F8923F9CFAF
:100970008091120490911104981301C008958F5F23
:100980008770FACF90910E048095892380930E048E
:10099000282F2770211111C0891779F090917704C1
:1009A00092FF0BC08695869586950E941D04109235
:1009B0000E041092100410920F04089590910A04EE
:1009C000982B90930A040895982F909580910A048B
:1009D000892380930A04089580910604811531F0DB
:1009E00010920604109205041092040408959C01CC
:1009F000803E910509F448C0D8F48133910509F48B
:100A00007DC048F48932910509F46DC08A9709F4D4
:100A10007CC0C90108958933910551F1823891054F
:100A200039F1C597B1F78091760485FFF2CF29C0DF
:100A3000843E910509F447C048F4823E910599F13E
:100A4000833E9105A9F121EE30E0E3CF863E91058A
:100A500009F444C0873E9105E1F68091760483FD58
:100A600061C09091770491FF2BC024EE30E0D1CF8C
:100A7000809176048370811152C08091770483FF46
:100A8000C8CF29E230E0C5CF8091760480FD33C025
:100A90009091770490FFBDCF23EE30E084FFB9CF73
:100AA00020E030E0B6CF8091760482FDF5CFB1CF63
:100AB0008091760482FD30C09091770490FD2FC024
:100AC00084FFA7CFEDCF8091770481FFA2CF8091E3
:100AD000760427EE30E084FDE3CF9BCF809176044F
:100AE00083FDF7CF96CF8091760485FD1EC080915F
:100AF000770483FF8ECF29E330E08BCF809176049B
:100B000086FF87CF2AE230E084CF8091760486FF8B
:100B100080CF21E330E07DCF22EE30E07ACF20EEAF
:100B200030E077CF26EE30E074CF25E330E071CFB0
:100B30009091760492FF10C041E0282F2471243058
:100B400009F040E031E0282F2871283009F030E02A
:100B5000431711F02CE0822793FF10C041E0282FAB
:100B60002471243109F040E031E0282F2871283128
:100B700009F030E0431711F02CE082273091770420
:100B800030FF10C051E0282F2171213009F050E0D2
:100B900041E0282F2871283009F040E0541711F067
:100BA00029E0822731FF10C041E0282F2171213137
:100BB00009F040E031E0282F2871283109F030E0B9
:100BC000431711F029E0822794FD877E08951F9333
:100BD000CF93DF930E94F704EC01811522E5920781
:100BE00008F055C0811540E5940708F0D1C0803E5B
:100BF000910520F58D3C910508F0A4C0883A910537
:100C000070F4853A910508F09AC081309105D1F1D0
:100C10000497813A9105B0F1C0E0D0E033C0885A22
:100C200091094B97C8F7C85AD0E0CC0FDD1FCF59B8
:100C3000DE4F0990D881C02DD46424C0811550E4C2
:100C40009507C0F4C11580E2D80708F0B7C0C83EC8
:100C5000D105C0F0CE019A9581159F41E8F68D2F00
:100C60000E949805182FCE0199270E94F704EC01E5
:100C7000D12B08C099270E94F704CC27DF70C82B1E
:100C8000D92BD06ACE01DF91CF911F910895803882
:100C900042E59407C8F5803652E5950708F05BC039
:100CA000C03482E5D807D0F4C03292E5D90708F005
:100CB0004BC08C2F8695869520E2829FC00111241F
:100CC000C37021E030E0A90102C0440F551FCA954E
:100CD000E2F7EA01C82BD92BDD68D4CF8C2F86959B
:100CE0008695877050E2859FC0011124C37021E072
:100CF00030E0A90102C0440F551FCA95E2F7EA018E
:100D0000C82BD92BDC68BECF803C52E5950758F440
:100D10008F71C03AD245A0F590E0982F8827EC015A
:100D2000C46FD06AAFCF805C9245809708F074CFD3
:100D3000DC2FCC27CC27DF71C06FD06AA3CFA4975C
:100D4000D064A0CFD0659ECFCF71D0E0DC2FCC2770
:100D5000C16FD06A97CF86958695877020E2829F73
:100D6000C0011124C37021E030E0A90102C0440F8A
:100D7000551FCA95E2F7EA01C82BD92BDA6882CF52
:100D80000E949805C82FD0E0DC2FCC27D0627ACF04
:100D90008F710E94980593E0CC0FDD1F9A95E1F7C3
:100DA000CC27DF70282F30E084FF04C050E1859FFE
:100DB00090011124C22BD32BD06964CF8D2F8F715A
:100DC0000E949805182FCE0199270E94F704EC0184
:100DD000D12BDCCF80E00895F894E82FE295EF70F6
:100DE000F0E041A18F7021E030E0B90102C0660F50
:100DF000771F8A95E2F7CB01962F9095942391A3C4
:100E000092A1892B82A3789408959C0121158CE7E7
:100E1000380741F48091150190911601892B11F446
:100E200020E030E0C9010895E3E7F3E080E090E0DE
:100E30006FE577E245E857E22AEF37E2778366838A
:100E400051874087338722879787868701967096D8
:100E50008830910599F70895809152049091530438
:100E60009093100180930F010895E2E5F4E08481EE
:100E700095812AE030E0B9010E948232609313012B
:100E800086818093140182858093030184858093F9
:100E9000020186859785B9010E9482326093110113
:100EA00080898093120182898093010184898093D3
:100EB00000010895EF92FF920F931F93CF93DF935A
:100EC000FB018FEF9FEF4430510508F45FC0409164
:100ED000760441FB882780F990E0880F991F42FB38
:100EE000002700F910E0000F111F000F111F802BC9
:100EF000912B40FBEE24E0F8F12C8E299F2943FB37
:100F0000222720F9C22F50E0D52F53E0CC0FDD1F50
:100F10005A95E1F78C2B9D2B44FB222720F950E1B9
:100F2000259F90011124822B932B45FB222720F92A
:100F300050E2259F90011124822B932B46FB222700
:100F400020F950E4259F90011124822B932B47FB1D
:100F5000222720F940E8249F90011124822B932B13
:100F600020917704322F3170932B26952170B22F68
:100F7000BB0FA0E08A2B9B2B092E000CAA0BBB0BEE
:100F800080839183A283B38380E090E0CDB7DEB706
:100F9000E6E00C9473329C0143E0969587954A9560
:100FA000E1F78E719927FC01E05EFD4F4081518190
:100FB000F901EF70FF2721E030E002C0220F331F5C
:100FC000EA95E2F7611541F0422B532B805E9D4F6D
:100FD000FC0151834083089520953095422353238B
:100FE000F5CFFC018481862381110AC0828181159D
:100FF000B9F06823908593FF05C081E061110FC0AF
:1010000080E00895282F22952F708F70282B962F1F
:1010100092959F706F70962B81E02913F1CF089500
:1010200081E00895282F35EB2303C001112497FF99
:1010300004C080589109892F089580589F4FFBCF95
:101040008091DD0260915A0470915B0480FF14C0AE
:1010500020910301269FC001279F900D1124BC0100
:10106000769567957695679560387105F0F5611509
:101070007105E9F1862F089581FF0BC020910301CE
:10108000269FC001279F900D1124BC01769567957E
:10109000EBCF82FF09C0809103019B01829FB001C9
:1010A000839F700D1124E0CF8091DC028115E1F265
:1010B0009091020120910301891738F0CB01289FFC
:1010C000B001299F700D1124CFCF289F90011124CA
:1010D000269FA001279F500D369F500D1124692F88
:1010E00070E0CA010E948232BFCF8FE7089581E08D
:1010F00008958091DD0280FF0CC06091010170E0D5
:1011000075956795759567956115710549F1862FF8
:10111000089581FF06C06091010170E075956795A3
:10112000F3CF6091010182FD0BC09091DB0291151C
:10113000A1F06091000180910101961738F0682FAD
:1011400070E06038710500F38FE70895899FC00152
:10115000112470E00E949632F4CF61E070E0D7CFA6
:1011600081E00895FA01309709F00995089580917A
:101170009302811559F0E091BF02F091C0023097BF
:1011800029F00190F081E02D0995089580E00895FF
:10119000A3E0B0E0EEECF8E00C945B329C018091AF
:1011A0001E0290911F0282179307A1F030931F0235
:1011B00020931E02E091BF02F091C002309751F0DF
:1011C00083E089833B832A830084F185E02DCE016F
:1011D000019609952396E2E00C947732A3E0B0E003
:1011E000E4EFF8E00C945B329C0180911C0290913A
:1011F0001D0282179307A1F030931D0220931C0259
:10120000E091BF02F091C002309751F084E08983F1
:101210003B832A830084F185E02DCE010196099558
:101220002396E2E00C94773290913901913091F05D
:10123000A2EDB1E0EFEF90E02D91821751F0EF3F7A
:1012400019F4211101C0E92F9F5F9630A9F7EF3FF4
:10125000C9F408959091760497FFEACFE82FE695B8
:10126000E695E695803FA8F7F0E0E852FE4F8770DC
:1012700021E030E001C0220F8A95EAF78281822BBB
:10128000828308950E2E000CFF0BE053FE4FF8CF23
:1012900090913901913021F49091760497FD0CC022
:1012A000E2EDF1E09191891302C0DF011E9251E05D
:1012B000E83DF507B9F70895E82FE695E695E69538
:1012C000803FC8F7F0E0E852FE4F877021E030E041
:1012D000A90102C0440F551F8A95E2F7CA01809503
:1012E00092818923828308958091380108952FB7D0
:1012F000F8948091180290911902A0911A02B0916D
:101300001B022FBF08958091540490915504892B9E
:1013100091F00E9477092091040430910504AC01FA
:10132000421B530B9A0181E04091540450915504A3
:101330002417350708F480E00895CF93DF93C09118
:101340000A0480910D04C82B809106048115F9F0E0
:101350008091540490915504892B29F00E948309AF
:1013600081110E94EC04D0910604809139018130F2
:1013700021F48091760487FD14C086E022ED31E0EF
:1013800090E0815090F491110E94EC04CD2B80915B
:10139000EF0280958C239091EE02892BDF91CF9103
:1013A00008958EE12AED31E0EBCFF90141919F01E3
:1013B000411539F39F5FE5CF962F2091770422FFE7
:1013C00010C0682F660F660F660F692B60930E04BE
:1013D0000E9411040E9477099093100480930F04D7
:1013E00008950E941104089590910604292F28233E
:1013F000211561F08095892380930604811539F0C9
:101400000E9477098093040490930504089580E076
:1014100090E0F8CFCF93C82F8091770482FF0CC063
:10142000809106048C1741F00E947709909305047F
:1014300080930404C0930604CF9108950E94770915
:101440002091E0023091E102232B211521F08093BD
:101450006802909369022091E2023091E302232B0B
:10146000211521F08093660290936702E091BF02FC
:10147000F091C002309749F082E08093DE0206804E
:10148000F781E02D8EED92E009950895611509F43C
:101490004BC0E3E3E80FE33150F4F0E0E75BFC4CD2
:1014A0000C94AA320E94200881958093E1020E9448
:1014B0001E0A08950E942008F8CF0E9420088195F6
:1014C0008093E002F4CF0E942008FACF0E947908AE
:1014D0008093E202ECCF0E9479088195F9CF0E94B7
:1014E000790881958093E302E2CF0E947908FACFD0
:1014F000815D990B21E030E001C0220F8A95EAF767
:101500008091DF02822B8093DF02D1CF8091DD02B8
:1015100081608093DD02CBCF8091DD028260F9CFC4
:101520008091DD028460F5CF4091E0028D3C59F45A
:101530008091E10287FF0DC01092E102411559F43C
:101540001092DC0208C08E3C81F48091E1021816F2
:101550009CF3411581F08091E2029091E302892B86
:101560008111A5CF1092DB02A2CF8F3C41F447FF3F
:10157000F0CF1092E0028091E1028115E0CF803D32
:1015800019F41416B4F3E5CF9091E202893D29F4E1
:101590001916FCF61092E202DCCF8A3D19F497FF8F
:1015A000D8CFF8CF9091E3028B3D29F497FFD1CFAC
:1015B0001092E302CECF8C3D19F41916CCF3C9CFAB
:1015C0009FE2980F983090F4815D990B21E030E014
:1015D000B90102C0660F771F8A95E2F7CB018095AB
:1015E0009091DF0289238093DF02B3CF8D3D31F4E8
:1015F0008091DD028E7F8093DD02ABCF8E3D21F4A2
:101600008091DD028D7FF7CF8F3D09F0A2CF8091D1
:10161000DD028B7FF0CF2FB7F894609118027091A4
:10162000190280911A0290911B022FBF0895CF9248
:10163000DF92EF92FF9280919302811559F00E9400
:101640000B0B6B017C01C701B601FF90EF90DF909F
:10165000CF9008950E940B0BC0909502D0909602F7
:10166000E0909702F0909802C60ED71EE81EF91E71
:10167000EACFCF92DF92EF92FF92CF93DF93D82FF2
:10168000C92FC0906D03D0906E03E0906F03F0906F
:1016900070030E940B0B6C197D098E099F09643F32
:1016A00071408105910518F10E940B0B6B017C01C3
:1016B00082E390E0A0E0B0E0C0926202D0926302C8
:1016C000E0926402F092650280935E0290935F0262
:1016D000A0936002B0936102D0936B03C0936C033C
:1016E000DF91CF91FF90EF90DF90CF90089584EF3E
:1016F00091E0A0E0B0E0E0CF87E797E790930108A2
:101700008093000888E19AE00FB6F894A89580933A
:1017100060000FBE90936000FFCFFC019B018091A1
:101720000E0290910F028617970740F0672B29F45D
:101730008091E8008E778093E800C90140E000972F
:1017400041F4411106C08091E80082FF2FC080E083
:101750000895209175022115A9F12530A9F1209154
:10176000E80023FD2DC02091E80022FDECCF209160
:10177000E80020FFE4CF3091F3002091F2000097C1
:1017800019F02830310558F041E02830310509F0D2
:1017900040E02091E8002E772093E800D0CF4191DF
:1017A0004093F10001972F5F3F4FE9CF8091750281
:1017B000811541F0853041F08091E80083FFC3CF6F
:1017C00081E0089582E0089583E008958091080201
:1017D00087FF13C08091E80082FF06C08091E80077
:1017E0008B778093E8000895809175028111F2CF84
:1017F0000895809175028115D9F38091E80080FFEA
:10180000F8CF8091E8008E77ECCF2091E400309102
:10181000E50095E6A9012091EC00822F817020FF60
:1018200006C08091E80080FF06C080E00895209106
:10183000E80022FD1AC080917502811589F085307B
:1018400089F08091EB0085FD0FC02091E40030917C
:10185000E50042175307F9F29A95E1F684E00895FE
:1018600082E0089583E0089581E00895E8EDF0E0D6
:1018700080818E7F80831092E2001092DA001092B5
:10188000E100A0EEB0E08C9181608C9380818F7735
:10189000808319BCA7EDB0E08C918E7F8C93808102
:1018A0008F7E8083109207020895FC01AC014C5F8B
:1018B0005F4F8FEF61E39191892728E030E0982F07
:1018C000990F87FF09C0892F862721503040B9F72B
:1018D000E417F50781F70895892FF7CF982F909394
:1018E000E900891771F07091EC002091ED005091A2
:1018F000F00021FD09C09F5F973089F78093E900D0
:101900000895762F242F50E03091EB003E7F3093E6
:10191000EB003091ED003D7F3093ED003091EB0016
:1019200031603093EB007093EC002093ED00509306
:10193000F0002091EE0027FDDECF0895A0E0B0E09A
:10194000E4EAFCE00C945532C8EDD0E088818F7E4B
:101950008883E7EDF0E080818160808384E082BF4E
:1019600081E08093070288818E7F888302EE10E0F9
:10197000F80110821092DA0081EEC82ED12CF60107
:10198000108288818F7788838881806888838881A6
:101990008F7D888319BC10927502109206021092F6
:1019A00054021092050290EEE92EF12CF70180818D
:1019B0008B7F808388818160888342E060E080E063
:1019C0000E946E0CF60180818E7F8083F8018081F9
:1019D00081608083808188608083F70180818E7F31
:1019E0008083888180618883CDB7DEB7E8E00C947E
:1019F00071329C012115310509F408958FE99FE0AA
:101A00000197F1F700C0000021503109F3CF0F9387
:101A10001F93CF93DF938B01EA019091750294306D
:101A200059F58093E9008FEF9091E80095FD06C08D
:101A300095ED9A95F1F700008A95B1F78091E8004D
:101A400085FF1AC00E94050C811111C08091E80029
:101A500085FD06C08091E8008E778093E800F2CF84
:101A6000F80181918F018093F100219779F780919E
:101A7000E8008E778093E800DF91CF911F910F915E
:101A80000895CF93DF93D82FC92F48E050E0682FF7
:101A9000792F81E00E94070D88E0ED2FFC2FA0E157
:101AA000B2E001900D928A95E1F7DF91CF91089510
:101AB000BC0140E250E084E00E94070D0895BC01A3
:101AC00046E050E084E00E94070D0895BC0143E029
:101AD00050E084E00E94070D0895A0E0B0E0E3E745
:101AE000FDE00C945332182F092FB62EA72E7A0141
:101AF000809102029AE0C92ED12C8A3018F0CC24B1
:101B0000C394D12CC1E0D0E06B2D7A2D812F902F82
:101B1000F7010995811116C02196CC16DD0694F0C7
:101B2000CC9FC001CD9F900D900D112420E030E09E
:101B300045E34A95F1F700002F5F3F4F281739071B
:101B4000B9F7E2CFCDB7DEB7EAE00C946F329091EF
:101B5000770492FB222720F9281779F080FB92F96D
:101B600090937704609176047091770484E090E01C
:101B70000E94293382E00E94C20408951F93CF93EC
:101B8000DF93962F122F632F8430D8F49830C8F447
:101B90004630B8F4C42FD0E0CC0FDD1F2CE0929F6C
:101BA000C00DD11D112490E6899FC00DD11D1124B7
:101BB000CE0188960E940B33612FCE0189960E9438
:101BC0000B33DF91CF911F910895CF93DF93CCE634
:101BD000D2E060E0CE010E940B332196C11584E073
:101BE000D807B9F7DF91CF910895CF93C82F68E850
:101BF000811101C06FEF84E290E00E940B3368E92D
:101C0000C11101C06FEF85E290E00E940B3364E9DF
:101C1000C11101C06FEF86E290E00E940B33CF91BB
:101C200008950F931F93CF93DF9302E514E0C8EA62
:101C3000D1E0CE010E94ED32F80161918F01681769
:101C400019F0CE010E940B332196CC3CF1E0DF0766
:101C500081F7DF91CF911F910F9108950F931F93FB
:101C6000CF93DF9302E514E0C8EAD1E0CE010E94F1
:101C7000ED32F80181938F012196CC3CF1E0DF0732
:101C8000A9F7C1EBD4E0FE0185919491009711F082
:101C9000FC0109952C96F5E0CD3ADF07A1F7DF911D
:101CA000CF911F910F9108950F931F93CF93DF93BF
:101CB000843030F5683020F5463010F5C42FD0E080
:101CC000CC0FDD1F2CE0629FC00DD11D112430E62A
:101CD000839FC00DD11D1124CE0188960E94ED3244
:101CE000082F10E0102F0027CE0189960E94ED32B8
:101CF0009801282BC901DF91CF911F910F91089571
:101D000080E090E0F8CF462F672F20919B02309122
:101D10009C02232B91F4703F39F4403F71F4809181
:101D2000990290919A020895783038F4463028F458
:101D3000843018F40E94540E089580E090E00895D5
:101D4000A0E0B0E0E6EAFEE00C9456327C0100919F
:101D5000090480910804082BC3E0D0E010E0C8011A
:101D60000C2E02C0959587950A94E2F780FD09C074
:101D70002197A8F7D12C8D2DCDB7DEB7E7E00C94D5
:101D80007232DC2EB7018C2F0E94830E0E94E70571
:101D9000019771F3F0CFCF93DF93D82FC92F0E9413
:101DA000A00E6D2F7C2F0E94830E0E94E705DF910D
:101DB000CF910895FC018481811539F08081918152
:101DC0000E94CB0E0E94E703089580E008951F93C0
:101DD000CF93DF93182FD92F611599F0411589F012
:101DE0000E94A00EC82F682F812F9D2F0E942D04C6
:101DF000612F7D2F8C2F0E94830EDF91CF911F9139
:101E000008950E946304C82FF3CFFC01462F65811B
:101E1000808191810E94E70E089584E290E00E9403
:101E2000ED32883889F485E290E00E94ED328839FD
:101E300059F486E290E00E94ED3291E0843909F095
:101E400090E0892F8170089580E0FCCF8091390166
:101E5000813059F58091760487FF27C00E949D0943
:101E60008093D90140E250E06FE972E088ED91E0A3
:101E70000E94C032892BC1F080E2E8EDF1E0AFE9C9
:101E8000B2E001900D928A95E1F7E091BF02F091E6
:101E9000C002309749F086E08093D8010480F58134
:101EA000E02D88ED91E0099508950E949D098093A9
:101EB000D00148E050E061EC72E080ED91E00E94DA
:101EC000C032892B89F388E0E0EDF1E0A1ECB2E0CB
:101ED00001900D928A95E1F7E091BF02F091C00266
:101EE000309711F30280F381E02D80ED91E0DBCF9C
:101EF000811521F00E94DE040E94260F08958115AD
:101F000039F090910D04892B80930D040E94260FC7
:101F10000895811521F00E94E4040E94260F08957F
:101F2000811541F0809590910D04892380930D04D3
:101F30000E94260F0895CF93C82F8115D1F08CEF02
:101F40008C0F813AA0F580913901813021F4809184
:101F5000760487FD10C0E2EDF1E08191C81709F128
:101F600021E0E83DF207C9F78C2F0E9414090E9476
:101F7000260FCF910895EC2FE695E695E695F0E0D3
:101F8000E852FE4F828190E04C2F477021E030E014
:101F900002C0220F331F4A95E2F782239323892B35
:101FA00019F38C2F0E9448090E94260FDDCF80E292
:101FB0008C0F883048F4C77081E001C0880FCA9543
:101FC000EAF70E94DE04D3CF8BE58C0F833038F420
:101FD0002C2F2452330BC9010E94C808CACFE8E550
:101FE000EC0FEB3150F4F0E0EE0FFF1FE956FE4F1F
:101FF000808191810E94EE08BCCF83E38C0F8331F6
:1020000008F0B7CF61E08C2F0E94460AB2CFCF9381
:10201000DF93EC01805E9109089720F06FE77FE085
:10202000209711F468E77FE0CE010E94DD038C2F3A
:102030000E949B0FDF91CF9108959C01611529F0BB
:1020400080910D04826080930D04C9019052811526
:10205000904308F43327C9010E94071008958115A1
:1020600081F19CEF980F913A28F40E9448090E9450
:10207000260F089590E2980F983050F4877091E001
:1020800001C0990F8A95EAF7892F0E94E404EFCFE7
:102090009BE5980F933028F480E090E00E94C808F8
:1020A000089598E5980F9B3128F480E090E00E9415
:1020B000EE08089593E3980F933118F460E00E94BE
:1020C000460A0895CF93DF93EC010E942F10CE01B2
:1020D000805E9109089720F060E97FE0209711F475
:1020E00069E87FE0CE010E94DD03DF91CF91089582
:1020F0000F931F93CF93C82F8B010E949B0F011545
:10210000110539F48C2F0E942F10CF911F910F9140
:1021100008958FE99FE00197F1F700C0000001509A
:102120001109EDCF6091720470917304893321F02D
:1021300060917004709171040E947810089510925B
:102140000A0480913901813039F58091760487FF46
:1021500023C0EAEDF1E08EE1DF011D928A95E9F7F7
:1021600080E090E00E94C80880E090E00E94EE08C5
:1021700010920D040E94260F86E0EEEDF2E0DF01E2
:102180001D928A95E9F71092DC021092DB02109200
:10219000DD020E941E0A0895E2EDF1E086E0DCCF48
:1021A0000E949F102FEF84E39CE0215080409040DC
:1021B000E1F700C0000088E19AE00FB6F894A89516
:1021C000809360000FBE90936000FFCFCF93DF93AA
:1021D000FB018FEF9FEF44305105B8F0D081C181F2
:1021E0000E949F10D0937604C370809177048C7FF7
:1021F000C82BC0937704609176047091770484E0D3
:1022000090E00E94293380E090E0DF91CF91089523
:10221000E2E5F4E0128E138E8FEA90E091838083E2
:1022200025E0248F88E893E1938382838AE090E01D
:102230009583848344E150E05783468348E050E02F
:1022400051874087938782876EE170E07587648746
:102250009787868780E590E0918B808B538B428BAC
:1022600048E250E0558B448B42E350E0578B468B5D
:1022700044EB50E0518F408F158E178E168E91A330
:1022800080A322A30E94110E0E949F101092770437
:102290001092760480E084608093770460E074E0BC
:1022A00084E090E00E9429330E942E0E0895AAE255
:1022B000B0E0EDE5F1E10C945A3288E092E0FC01E7
:1022C00001962091F100208322E080319207B9F736
:1022D00080910902893009F45AC0C8F4823009F4A7
:1022E000B7C0833009F486C0813091F18091E80055
:1022F00083FFEBC080910802909109029A3008F0A8
:10230000E4C0E92FF0E0E45AFC4C0C94AA328A3085
:1023100009F48DC08B3051F780910802813231F77A
:1023200080910C0290910D02892B01F78091E800B9
:10233000877F8093E8000E94E60B81E090910A027B
:10234000911101C080E0809339010E949F10CECF8F
:1023500080910802813A51F68091E800877F80934E
:10236000E80080910C0290910D02892B61F060E0F1
:1023700080E090E070E00E948D0B8091E8008B7708
:102380008093E800B3CF68E080E192E0F3CF8091E2
:102390000802813209F0AACF80910C0290910D02BF
:1023A0008D7F892B09F0A2CF8091E800877F8093F1
:1023B000E8008091E80082FF18C09091F3008091BE
:1023C000F200029731F48091F100813011F08630F3
:1023D00021F48091F100809338018091E8008B779F
:1023E0008093E8000E94E60B81CF809175028111F5
:1023F000E0CF7CCF80910802813A09F077CF8091BD
:102400000C0290910D02892B09F070CF8091E800A9
:10241000877F8093E8008091E80080FFFCCF809167
:1024200039018093F1008091E8008E77D9CF8091B7
:102430000802813209F05ACF8091E800877F8093AB
:10244000E8000E94E60B80910B02809337014ECF8B
:1024500080910802813A09F049CF8091E800877F96
:102460008093E8008091E80080FFFCCF80913701E5
:10247000D8CF803889F0823841F580910C028F7076
:10248000873018F58093E9008091EB0085FB882761
:1024900080F91092E90006C080915402880F909153
:1024A0000502892B9091E800977F9093E800809334
:1024B000F1001092F1008091E8008E7723C0811125
:1024C00016C080910A02813011F18091E80083FFEB
:1024D0000AC08091E800877F8093E8008091EB003C
:1024E00080628093EB00AA96E3E00C94763282300F
:1024F00061F780910A02811589F01092E9008091BC
:10250000E800877F8093E8000E94E60BDECF81E041
:10251000933009F080E080935402EFCF80910C0259
:102520008F702FEF280F263080F68093E9002091DE
:10253000EB0020FFE2CF933031F48091EB0080621A
:102540008093EB00DACF9091EB0090619093EB00D9
:1025500021E030E0A90102C0440F551F8A95E2F73F
:102560004093EA001092EA008091EB008860E8CF87
:102570008111ABCF10910A021F778091E300807820
:10258000812B8093E3008091E800877F8093E800AF
:102590000E94E60B8091E80080FFFCCF8091E30071
:1025A00080688093E30083E0111101C082E0809392
:1025B00075028BCF8058823008F087CF80910A0255
:1025C00090910B028C3D53E0950799F583E08A8347
:1025D0008AE289834FB7F894DE01139620E03EE04B
:1025E00051E2E32FF0E050935700849120FF03C0A5
:1025F00082958F703F5F8F708A30C8F0895C90E061
:102600008D939D932F5F243161F74FBF8091E80038
:10261000877F8093E8006AE270E0CE0101960E9415
:102620008D0B8091E8008B778093E8004ECF805D22
:10263000E6CF292F33272330310509F44EC078F532
:102640002130310509F488C08BE590E0E8E7F2E03D
:102650002230310509F039CF2091E800277F2093FF
:10266000E80020910E0230910F028217930708F4C0
:102670009C0140E02115310509F073C0411171C082
:102680008091E80082FDCDCF80917502811549F2DD
:10269000853039F28091E80083FFF2CFC2CF80917C
:1026A0000C0290910D022132310509F446C022320C
:1026B000310509F00ACF8330910508F006CFFC01FF
:1026C000EE0FFF1FE75BFE4F0190F081E02D8A5B6C
:1026D0009E4FDC018C9190E010C09C01332782302A
:1026E00021F12330310568F4232BB9F4E3E2F3E060
:1026F000E4918E2F90E0E3E2F3E0009709F4E5CE59
:10270000ABCF2330310509F0E0CEE5EEF2E0E49105
:102710008E2F90E0E5EEF2E0F0CFE1E1F3E0E4911E
:102720008E2F90E0E1E1F3E0E8CFE3E0F3E0E49125
:102730008E2F90E0E3E0F3E0E0CF8330910508F0E6
:10274000C4CEFC01EE0FFF1FE15BFE4F0190F08154
:10275000E02D89E090E080CF82E190E0E3EDF2E0CF
:102760007BCF80917502811509F45BCF853009F428
:1027700058CF8091E80083FD54CF8091E80082FD1E
:102780007FCF8091E80080FF75CF9091F30080911A
:10279000F2002115310519F08830910550F041E023
:1027A000089709F040E08091E8008E778093E80078
:1027B00061CF44914093F100319621503109019647
:1027C000E8CF803809F081CE8091E800877F809340
:1027D000E800809106028093F1006DCE811175CEE4
:1027E00010910A02123008F070CE8091E800877FC5
:1027F0008093E800109306020E94E60B1115F9F091
:1028000084E08093750242E061EC81E00E946E0CEE
:1028100042E261EC84E00E946E0C42E261EC82E0F4
:102820000E946E0C42E260EC83E00E946E0C80918C
:102830007502843051F482E080933A0146CE809153
:10284000E30087FDDDCF81E0DCCF81E0F5CF809133
:102850003C01877F80933C0190910D049D7F909374
:102860000D0484FF06C08F7E80933C0182E00E94AD
:10287000DE0480913C0185FF06C08F7D80933C0182
:1028800080E20E94DE040E94260F0895CF92DF921C
:10289000FF920F931F93CF93DF93EC018B01F42EE4
:1028A00080913C0182FF65C0C090F903D090FA038B
:1028B000CC16DD0619F0209709F05BC080913C0131
:1028C0008B7F80933C01C1E081FD10C08091F703B4
:1028D0009091F8039801281B390BC1E080910F01FA
:1028E000909110012817390708F4C0E080913C014D
:1028F000C0FB81F980933C016C2FC6010E94CB077D
:1029000080910A0481FF08C080913C01806180931E
:102910003C0182E00E94E40480910A0485FF08C023
:1029200080913C01806280933C0180E20E94E4043B
:102930006C2FC6010E941D10F11431F080916D04BE
:1029400085FF02C086FF29C08091700490917104B8
:102950000E94F90C8091F9039091FA039C01305286
:102960002115304308F499270E9462100E94271411
:1029700010C0CE01905281159043B8F4CE01992732
:102980000E9462108091F9039091FA03C817D90749
:1029900069F31093F8030093F703DF91CF911F9130
:1029A0000F91FF90DF90CF900895CE01E9CFCF93A4
:1029B000DF93EC014A855B856E857F850E94B208B6
:1029C0009B81909580910D04892380930D048C81C7
:1029D0000E94E4040E94260F86E0FE0111928A956F
:1029E000E9F7DF91CF910895CF93DF93EC018D81CB
:1029F00081FD14C082608D8380910D049B81892BA1
:102A000080930D048C810E94DE040E94260F48856D
:102A100059856E857F85CE010E94B2081092F4031D
:102A20001092F3038D8180FD03C0CE010E94D71464
:102A3000DF91CF9108951F93CF93DF93182FA0912B
:102A40006903B0916A03109709F44AC010926C03AD
:102A500010926B031092EF021092EE021696CD9137
:102A6000DC911797CE019A9581159F4108F4D07E8D
:102A7000D1E0C11101C0D0E01996ED91FC911A97F7
:102A8000309731F01B966D917C9180E00995D823A9
:102A9000D11539F08CEF8C0F813A30F58C2F0E94D4
:102AA00048091115A9F0E0916903F0916A03808546
:102AB00084FD0EC080916803811551F08081918161
:102AC0009C01215031092F333E4710F40E94390BED
:102AD0000E94260F10926A031092690310926803F5
:102AE000DF91CF911F9108950E94260F8C2F0E9495
:102AF0002F10D7CF9C01CB01DA01F9013296459115
:102B00005491A417B50748F0F90134966591749172
:102B10000E94CD3280E090E008958FEF9FEF0895FE
:102B20009C01DA010296FC0145915491FC018591CA
:102B30009491A817B90758F0F901349685919491AA
:102B40000E94CD320E94110E80E090E008958FEF38
:102B50009FEF0895ACE0B0E0E0EBF5E10C944E326D
:102B6000FE01319688E0DF011D928A95E9F785E53F
:102B7000E82E81E0F82E8F013F01AA24A394B12C06
:102B80002FE5822E21E0922EF70181917F018F3F68
:102B900009F43EC0F894E82FE295EF70F0E021A12F
:102BA0008F70A50102C0440F551F8A95E2F7CA0134
:102BB000922F982B91A392A18095892382A3789438
:102BC00000C0E9E5F1E031E0512C21912F3F79F08F
:102BD000A22FA295AF70A05EB0E08C9190E02F7014
:102BE00002C0959587952A95E2F780FF81C080E025
:102BF000582A330F8E169F0641F7F70182918F3FB7
:102C000011F00E94EC0650EA5A95F1F7D8015C9257
:102C10000F5F1F4FB9E5EB16B1E0FB0609F0B4CF2B
:102C200048E050E0B30189E492E00E94C0326C01B8
:102C3000892B41F088E0F301A9E4B2E001900D9204
:102C40008A95E1F70091520210E003591D4FC1141B
:102C5000D10409F44FC081E0809301020E947709FA
:102C6000909300028093FF0180919302811509F4F3
:102C70009CC07E01E9E0EE0EF11C84E0D7011D92BC
:102C80008A95E9F7809102028A3008F057C04DE238
:102C900058E1B701C8010E946D0D811509F473C098
:102CA00043ED58E1B701C8010E946D0D811509F48B
:102CB0006AC042ED57E1B701C8010E946D0D811550
:102CC00009F461C0109202028091510290E044E048
:102CD00050E0B70183599D4F0E94C03221E02093FC
:102CE000FE01892B09F041C02C96EFE00C946A326A
:102CF000832F7ECF80910102811509F4B5CFE0903A
:102D0000FF01F09000020E9477098E199F09059734
:102D100008F4AACF44E050E069E472E0C8010E94E0
:102D2000C032892B41F084E0E9E4F2E0D80101905F
:102D30000D928A95E1F71092010296CFC090FC01A6
:102D4000D090FD010E9477098C199D09843F914024
:102D500008F09DCF8091FE01811531F284E0F701EA
:102D600011928A95E9F71092FE01E0915102F0E08C
:102D7000E359FD4F89859A85AB85BC858083918316
:102D8000A283B383B1CF809102028F3F39F40E94B6
:102D900077099093FD018093FC01DCCF8F5F8093D6
:102DA00002028A3008F490CFF2CFE0905102F12C69
:102DB000A70143595D4F7A01F80180819181A28179
:102DC000B38180937F0290938002A0938102B0939D
:102DD00082028FE792E00E94550C80937E028091E0
:102DE000830290918402A0918502B0918602F7013E
:102DF00080839183A283B383C0908702D09088029E
:102E0000E0908902F0908A028091F8019091F90196
:102E1000A091FA01B091FB01C816D906EA06FB069B
:102E200009F462CFC092F801D092F901E092FA0160
:102E3000F092FB010E940B0BC61AD70AE80AF90AA6
:102E4000C0929502D0929602E0929702F092980278
:102E50004BCFA0E0B0E0EFE2F7E10C945432EC018C
:102E600088818115F1F0813009F042C0898181307B
:102E700029F48A8123960E949210F2CF823029F49D
:102E80008A8123960E949B0FEBCF833029F48A819D
:102E900023960E942F10E4CF843041F022968111B6
:102EA000DFCFCDB7DEB7E9E00C9470328A8123968C
:102EB00020E030E09AE0682F6053770BAB016A3076
:102EC000710560F02115310551F3EFE9FFE031970D
:102ED000F1F700C0000021503109F4CF929FB001FA
:102EE000939F700D11249A01260F371F8991E3CF0C
:102EF000E82FF0E0E850FE4FB490282F2695269555
:102F0000269530E0F901E851FE4FE4908770F12CEE
:102F1000082E02C0F594E7940A94E2F7E0FAEE2452
:102F2000FF24E0F8F901E852FE4FC490D12C082E9E
:102F300002C0D594C7940A94E2F7C0FACC24DD24E9
:102F4000C0F8F901E853FE4F049110E002C0159556
:102F500007958A95E2F701701127E114F10419F041
:102F600081EE0E949B0FC114D10419F086EE0E94DD
:102F70009B0F60E070E08B2D0E947810C114D1048B
:102F800019F086EE0E942F10E114F10419F081EE81
:102F90000E942F100115110519F08CE20E94921069
:102FA00021965ECFCF92DF92EF92FF921F93CF9345
:102FB000DF9300D000D0CDB7DEB7C0907602D090BE
:102FC0007702E0907802F09079020E940B0B6C1966
:102FD0007D098E099F0911E064367105810591050F
:102FE00078F10E94170BDC01CB010296A11DB11DE7
:102FF00089839A83AB83BC838091300190913101A6
:1030000082589D4F20912F01422F50E0253010F023
:1030100044E050E0BE016F5F7F4F0E94CD3283E0FD
:1030200090E00E94D731182F811551F00E940B0BB0
:10303000609376027093770280937802909379027E
:10304000812F0F900F900F900F90DF91CF911F91D4
:10305000FF90EF90DF90CF9008958F929F92AF9264
:10306000BF92EF92FF921F93CF93DF9300D000D0D7
:103070000F92CDB7DEB77B0180E090E00E94D731A0
:10308000182F811509F464C080911A01482F50E06F
:10309000811511F041E050E060911B0170911C011D
:1030A00062587D4FCE0105960E94CD3280908F02EE
:1030B00090909002A0909102B09092020E940B0B0F
:1030C000681979098A099B0964367105810591059A
:1030D00038F48FE792E00E94550C9D818917C1F169
:1030E00081E090E00E94D731811509F43FC08091C2
:1030F0002201482F50E0853010F044E050E060910C
:1031000023017091240162587D4FCE0101960E94E7
:10311000CD328FE792E00E94550C9D81891326C025
:103120000E940B0B60938F02709390028093910228
:103130009093920289819A81AB81BC8180938B02AA
:1031400090938C02A0938D02B0938E0281E00FC009
:1031500080917F0290918002A0918102B0918202C1
:1031600089839A83AB83BC831111E4CF80E04091C3
:103170008B0250918C0260918D0270918E02F7014A
:1031800040835183628373830F900F900F900F9051
:103190000F90DF91CF911F91FF90EF90BF90AF9074
:1031A0009F908F900895A0E0B0E0E9EDF8E10C94D5
:1031B0005532D82FC92F44E050E063E872E00E94F6
:1031C000C0328C01C0907A02D0907B02E0907C02E9
:1031D000F0907D020E940B0B6C197D098E099F09EE
:1031E000643671058105910518F40115110511F179
:1031F000809128019091290182589D4F20912701AB
:10320000422F50E0253010F044E050E06D2F7C2F2D
:103210000E94CD3282E090E00E94D731811559F0B2
:103220000E940B0B60937A0270937B0280937C0266
:1032300090937D0281E0CDB7DEB7E8E00C94713267
:10324000A4E1B0E0E6E2F9E10C945032A09015015F
:10325000B090160181E090E09093160180931501E3
:10326000812C912CE12C6401F12C15C0F8012591E1
:103270003491472D6F2D8E2D0E94BE0D0E5F1F4F76
:10328000739486E07812F2CFA6E0CA0ED11CF394B4
:10329000B8E0FB1639F08601000F111F095D1C4FC5
:1032A000712CE4CFE39480E3880E911CA4E0EA1231
:1032B000DACF0E9408111A8219821C821B821E8298
:1032C0001D8218861F8284EB90E09A8789870CEC18
:1032D00011E04AE050E0B801CE0101960E942F3380
:1032E000065F1F4F0C31B2E01B0799F7FE013B96BA
:1032F00089E0DF011D928A95E9F78FEF9FEF988BA8
:103300008F8787E08C8B7F014AE050E0B801C701CE
:103310000E942F33065F1F4F0C36B2E01B07A1F748
:10332000B0921601A09215016496EDE00C946C32F7
:1033300080E00E94F50D60E087E290E00E940B3390
:103340000E9420190E94E50D81E00E94F50D08956C
:10335000AAE0B0E0EEEAF9E10C94533200EF12E09B
:103360008CE1E82E82E0F82E97E0B92E20E4C22E00
:1033700022E0D22EAA24A3944AE050E0B701CE0165
:1033800001960E94DD32F8013896DF018B2D1D92E7
:103390008A95E9F789819A81D80111969C938E9339
:1033A0008F8112968C9312978D8113968C9313971D
:1033B000888514968C931497898515968C93159708
:1033C0008B819C8117969C938E9316978A8587FD97
:1033D00004C01E96DC92CE921D9780FF02C0F801B9
:1033E000A08681FF07C0D80118969C91189792601B
:1033F00018969C9382FF04C0F80190859460908792
:1034000083FF07C0D80118969C911897986018966A
:103410009C9384FF04C0F80190859061908785FF9C
:1034200007C0D80118968C911897806218968C93D3
:10343000BAE0EB0EF11C015F1F4FECE6EE16E2E086
:10344000FE0609F099CF2A96EAE00C946F32282FF5
:10345000CB01283070F44AE0249F90011124B90177
:1034600064537E4F4AE050E00E94DD3280E090E0FD
:1034700008958FEF9FEF0895AAE0B0E0E2E4FAE14B
:103480000C945B329C0197558115914070F4BE01FC
:103490006F5F7F4F822F0E94271A892B31F4898515
:1034A0009A852A96E2E00C94773280916A04909192
:1034B0006B04F7CFA0E0B0E0E0E6FAE10C945632FE
:1034C000162FD72FC42FD22E8115A9F040930204B6
:1034D0000E9477099093040280930302C77081E0F1
:1034E00001C0880FCA95EAF70E94780FCDB7DEB702
:1034F000E7E00C94723290910204491338C0E090D6
:103500000302F09004020E9477099C012E193F09E2
:103510007901812F9D2F0E943C1AE816F90638F593
:10352000D0E2DD0DCD15A1F0C77011E0812F01C0F3
:10353000880FCA95EAF70E94890FD83048F48D2D7C
:10354000877001C0110F8A95EAF7812F0E94780FCA
:10355000802F0E949210D83048F62D2D277081E0E0
:1035600001C0880F2A95EAF70E94890FBFCFC77064
:1035700081E001C0880FCA95EAF7F6CFAFE0B0E06E
:10358000E4ECFAE10C944B327C01DC0114968C9152
:10359000811509F468C161E0C7010E94050F8C0123
:1035A000F7018581811531F18091F3039091F40346
:1035B000009701F108171907E9F0FC01FF27887F40
:1035C0009927892B09F067C064E0EE0FFF1F6A9509
:1035D000E1F7ED58FC4F858184608583118300837A
:1035E000CF010E94F41410920D0461E0C7010E9403
:1035F000050F8C01D70115968C91811509F4BEC079
:10360000C80197578038910508F0EAC0D02EB0E184
:103610000B1708F017C18FEF93E00E94ED32811174
:1036200011C10CE612E0D11039C054E0652E9E01A4
:103630002F5F3F4F5901D501E62D1D92EA95E9F71D
:103640004801FFEF8F1A9F0AC8010E94ED3289835B
:10365000811509F4F7C0813009F08AC0680122E0C1
:10366000C20ED11CC4010E94ED32782E8A838115CE
:1036700009F4E8C08FEF870D8330F0F4C6010E9493
:10368000ED328B83811519F0C5010E9429170D5F5A
:103690001F4F680171C0E0E0F0E09DCF0115E4E04C
:1036A0001E0709F4CFC0C8010E94ED320F5F1F4F03
:1036B0008111F4CFDA94B7CF8BEF870D833060F5AB
:1036C000480143E0840E911CC6010E94ED328B83B9
:1036D000811509F450C00C5F1F4F6801C4010E949E
:1036E000ED328C83811509F447C08B819C81813038
:1036F000AFEF9A0710F0982F8827B6E07B1631F0CD
:10370000E7E07E1631F00E944C2736C00E94042765
:1037100033C00E94282730C0F4E07F122DC0C601BC
:103720000E94ED32982E680124E0C20ED11CC8011F
:1037300003960E94ED32282F911409F483C081155D
:1037400009F480C02150330B4FEF429FC001439FCB
:10375000900D1124492D4150550B840F951F019751
:1037600058F0AFE9BFE01197F1F700C00000F7CFC4
:10377000C5010E942917640186015DCF6801E7E554
:10378000DE1AC114F1E0DF0658F564EE72E08C2D0C
:103790000E94271A892B21F5C60134E0880F991F52
:1037A0003A95E1F7FC01ED58FC4F22812130A1F55B
:1037B0002091E4023091E502232B91F02091E60262
:1037C0003091E702232B61F02091E8023091E90269
:1037D0004091EA025091EB02242B352B232B21F14F
:1037E000D70115962C90211409F441C00E35BCE781
:1037F0001B0729F10F35ECE71E0741F00D35FCE7FB
:103800001F07A9F580913B018115C9F010923B017A
:1038100080E00E941B1516C0223011F72091E802AB
:103820003091E902232BE1F2FC01E858FC4F2081A2
:103830002E7F20838D589C4F0E94F414D1CF81E0BD
:1038400080933B0180910E048770811561F0D70150
:1038500015968C91811539F08091770482FF03C011
:1038600082E00E94C2042F96E2E10C9467328091BC
:103870003B01811148C0C80197558115914008F05E
:10388000DEC05801F8EFAF22BB24A114B104D1F679
:10389000F801FF2794E0EE0FFF1F9A95E1F79F01D3
:1038A0002D583C4F6901D70115968C91E858FC4F73
:1038B000908180FB90F99083811509F4FEC10E94EC
:1038C00077099093F6038093F503F60182818F5F69
:1038D000828380910D0490910A04892B83838091C7
:1038E000060484834681578166857785C6010E94D8
:1038F000B208D60115968C9181FF5801B092F4035D
:10390000A092F3039CC0280130EE431A5108309076
:10391000070480910A04382A80910604382A48E076
:103920004416510408F05EC098012770332781E0E7
:1039300090E001C0880F2A95EAF7211409F44FC0DE
:10394000382AD7018D919C910E94630421E030E0D8
:10395000F90102C0EE0FFF1F8A95E2F7FF87EE879D
:103960002091690330916A03398728874091710358
:10397000509172035D874C8720EFC22E22E0D22E39
:10398000A12CB12C311005C0D60112968C91811159
:103990001BC0F601838190E02E853F85822393230F
:1039A000892B91F08085982F9770911101C087E045
:1039B00038E04316510408F0A8C0211409F4A1C04E
:1039C000869581708111A6C0EFEFAE1ABE0AFFE0A6
:1039D000CF0ED11C28E0A216B104A1F61CC0809520
:1039E0003822AFCF21107AC0809171039091720379
:1039F0000817190781F41092720310927103109244
:103A00006D0310926E0310926F0310927003109268
:103A10006C0310926B038091690390916A03009785
:103A200009F429CF38E04316510408F030C1632D62
:103A30000E94F107811103C081E00E941B15809153
:103A40006D0480FFAAC10E9477093C01F7018581BE
:103A5000811509F4B4C180913C0182FF06C040E0A9
:103A6000B30180E090E00E9446140431FCE71F0798
:103A700009F4A1C105312CE7120709F43BC1033158
:103A80003CE7130709F47CC1C801905281159043AB
:103A900008F03AC11092FA031092F903F7019581E8
:103AA000911509F40DC31092020498013057233286
:103AB000310508F005C384E090E00E94F532909350
:103AC000770480937604F801E150F047E232F10583
:103AD00008F03CC2EA59FC4C0C94AA3210937203D1
:103AE000009371030E940B0B60936D0370936E0340
:103AF00080936F039093700310926C0310926B038A
:103B000020CF82FB882780F95DCF211409F45CCF98
:103B100080FF5ACFD6018D909C900815190519F495
:103B2000211409F451CFE885F985EC15FD0509F458
:103B30004BCFD6011D96ED91FC91309721F08081FD
:103B4000811509F441CF632DC6010E94F10781154B
:103B500009F43ACF81E00815190509F080E08221C7
:103B60008F838114910441F0811106C0EC85FD859D
:103B70008E169F0609F028CF80E00E941B15D09278
:103B80006A03C092690381E0809368038FE08A9D95
:103B9000F0018B9DF00D1124E051FD4F8581809344
:103BA000EF022F8121110EC08114910459F0808100
:103BB00091819C0124503109213A310508F049C016
:103BC0000E9448098FE08A9DF0018B9DF00D112421
:103BD000E051FD4FC680D780C6019A9581159F415F
:103BE00010F440EED42299249394C60101978F33A8
:103BF0009E4708F0912C8FE08A9DD0018B9DB00DDF
:103C00001124A051BD4F1996ED91FC911A97309750
:103C100031F01B966D917C9181E009959822911469
:103C2000A9F08FE08A9DF0018B9DF00D1124E051E9
:103C3000FD4F868197810E94B3038093EE0288E056
:103C40004816510448F4C6010E94390B0E94260F01
:103C50000BC00E942F10B6CFC6010497813A910580
:103C600050F48C2D0E941409BF81B11509F403CEC4
:103C70000E94260FE7CD0E94260FAFE3BCE9119703
:103C8000F1F700C000008C2D0E949B0FEDCFDC01EE
:103C90002D913C910217130741F4211009C0109295
:103CA000680380E00E941B15E6CD211409F4E3CDE2
:103CB000FC01808585FDDFCDF4CFF9014485558574
:103CC00066857785C9010E94B208D60115968C9148
:103CD00081FFB5CEC6010E94D7148091F303909165
:103CE000F4030817190709F0AACE1092F4031092F2
:103CF000F303A5CE90913C01892F8E7F90FF8160C8
:103D000080933C010E94271480913C0180FF45C0B4
:103D10000832110508F069C00E31110508F076C0AF
:103D2000C80104974A9788F580916D0484FD2DC0E1
:103D3000D70115968C91811509F4D6C0809106049F
:103D400090910A04892B8D7F811509F464C010922B
:103D5000FA031092F90380916D0481FD5CC060E06C
:103D6000C8010E94CB0760E0C8010E941D1080912D
:103D700006048D7F0E940A0A82E00E94C20462CD7E
:103D800080913C01816080933C01F7018581811520
:103D900021F01092FA031092F903D70115968C9135
:103DA000F801E851FC47E730F10508F077CEE85715
:103DB000FC4C0C94AA3280913C018E7FA1CF809163
:103DC0003C018F7E013E110531F0053E110531F4B5
:103DD00080913C018F7D80933C0196CFC801905229
:103DE0008115904308F090CF59CE0933110558F44E
:103DF0000D32110518F40B32110539F680916D045E
:103E000082FDC3CF95CF04361105F7CF80916D04A5
:103E100083FDBBCF8DCF87E0F701ABEFB3E001901F
:103E20000D928A95E1F71092FE031092FD038091A6
:103E3000F9039091FA0308171907C9F520916D0449
:103E400025FF35C030913C0131FF02C026FF2FC055
:103E50002091F7033091F8036301C21AD30A0E943C
:103E60003C1AC816D90618F580910A0481FF08C0CB
:103E700080913C01806180933C0182E00E94E404D7
:103E800080910A0485FF08C080913C018062809384
:103E90003C0180E20E94E40460913C0166956170FF
:103EA0008091F9039091FA030E941D10CBCC809170
:103EB0000604D0900A04D82AD1FADD24D0F88D7FE8
:103EC0000E940A0A1093FA030093F9037092F80310
:103ED0006092F703DD0C6894D2F890913C01997FD1
:103EE000D92AD0923C0148CF40E0B301C8010E94DA
:103EF0004614A8CC06E221EE41EE6AE17CE70E947E
:103F00005A1AA0CC07E225EE45EE6BE17CE7F7CF2D
:103F100006E221EE40EE68E17CE7F1CF07E225EE14
:103F200044EE69E17CE7EBCF06E221EE42EE6CE184
:103F30007CE7E5CF07E225EE46EE6DE17CE7DFCFDB
:103F400008E221E045EE6EE17CE7D9CF809176046E
:103F5000816080937604609176047091770484E0A8
:103F600090E00E9429330E949F106CCC80917704CE
:103F7000886080937704EFCF809176048260E9CFE8
:103F8000809176048460E5CF809176048860E1CFEB
:103F9000809177048160EDCF809177048260E9CFD2
:103FA000809176048061D5CF809176048062D1CFF4
:103FB000809176048064CDCF0E949F10809176041A
:103FC0008068C7CF809176048C60C3CF80917704DE
:103FD0008360CFCF809176048E7FBBCF80917704B2
:103FE000877FC7CF809176048D7FB3CF8091760491
:103FF0008B7FAFCF80917604877FABCF80917704A2
:104000008E7FB7CF809177048D7FB3CF8091760478
:104010008F7E9FCF809176048F7D9BCF8091760499
:104020008F7B97CF0E949F10809176048F7791CFDE
:1040300080917604837F8DCF809177048C7F99CF98
:1040400080917604992782FF939590FB82F990FBEB
:1040500083F97FCF80917704982F909590FB80F91A
:1040600090FB81F986CF90917604892F8F7B96FF04
:1040700080646FCF0E949F1090917604892F97FBE8
:1040800087F9805866CF61E08EE090E00E940B33A4
:1040900062CF60E0F9CF90917604892F8F7E94FFF4
:1040A000806157CF90917604892F8E7F90FF816039
:1040B00050CF90917704892F877F93FF886059CFE5
:1040C0000631FCE71F07C1F580910A0430916C04AA
:1040D00030FF04C0282F2474211122C0282F2A7AEF
:1040E00031FF04C0482F4171411120E032FF04C06C
:1040F000482F4878411120E033FF03C082728111BC
:1041000020E0911579F081E0211101C080E08093D9
:10411000030485E3211101C089E20E941409A8CD9E
:1041200020E0DECF80910304811521F085E30E9419
:1041300048099ECD89E2FBCF07372CE71207F9F03B
:1041400008373CE7130731F19801205E32452032F1
:10415000310528F591113BC00F7181E090E0AC0171
:1041600002C0440F551F0A95E2F78A01642F83E0CD
:1041700090E00E940B33802F0E940B0463CB81E000
:10418000911551F00E94110443E062E081E00E9429
:10419000970458CB82E0F4CF0E941D04F5CF91150F
:1041A000B1F00A355CE7150709F493C008F06AC05E
:1041B00001309CE7190709F48AC00330ACE71A07FD
:1041C00009F47FC00115BCE71B0709F46DC0F701B6
:1041D0008581C080D180811509F47FC0C6010E940D
:1041E000A00E182F682FC6010E942D04B601812F42
:1041F0000E94830E0E94E705182FD92E86E0F70152
:10420000DE01119601900D928A95E1F7D70115967E
:10421000CC90159716969C9092948FE0982280915E
:104220000E048770811501F18C2CC114F1F0892FD7
:10423000807F803461F080E2810F8830A8F0892F80
:10424000807E803221F4123078F0911469F08091F0
:10425000770482FF09C082E00E94C20480910E04AC
:104260008770882483948111812C8D2D82958F7085
:10427000A82EB12C8C3008F04FC0F501E157FC4C52
:104280000C94AA320B35ECE71E0729F180917704D4
:10429000002482FF0394802D0C35FCE71F0709F0F2
:1042A00096CF0E94A70D93CF0E949F102FEF34E36B
:1042B0004CE0215030404040E1F700C000000E9437
:1042C0007C0B6FEF7FEF80E090E00E9429330E942B
:1042D000D01081E0E6CF80E0E4CFC6010E94630405
:1042E000182F84CF0D2D0F70B0E1DB1610F0029562
:1042F000007FC11409F44AC0011559F080E2810F12
:10430000883010F011113CC0802F0E94DE040E9402
:10431000260F812F0E949B0FE8E0AE1AB108F4E04F
:10432000AF16B10418F40E94B708812C812F9D2D7F
:104330000E94E703811541F0C11409F412C29114DF
:1043400009F406C210927A048114A9F080910E0437
:1043500080FD11C0F70115828695869586950E948D
:104360001104C7010E94BE1A80910E04869586959D
:1043700086950E941D0460E0C7010E94050F73CA64
:1043800080910D04802B80930D04C1CF812F0E945A
:104390002F10011509F280E2810F883010F0111101
:1043A00004C0802F0E94E40406C0009580910D0493
:1043B000802380930D040E94260FAECF0D2D0F7029
:1043C0008D2D807F803211F00295007F111549F00C
:1043D000113009F473C0C11409F47FC09114D9F0ED
:1043E00098CF8091770482FD12C0C11449F0011565
:1043F00029F0802F0E94DE040E94260F80E08ACFE1
:1044000080E00E942F10011509F486CFCACFC11495
:1044100091F1911004C0802F0E94780F7DCF21E090
:10442000921211C070900604802F8721081709F49A
:1044300073CF0E9477099093050480930404702A37
:104440007092060469CF80916E04823008F464CFC4
:10445000981262CF802F0E94780F802F0E94F4095B
:1044600080910704902F9823091709F455CF802BCA
:104470008093070451CF911012C0802F0E94890FA2
:10448000802F0E94F40980910704902F98239115A2
:1044900009F442CF00950823009307043DCF809193
:1044A0006E04823008F438CF31E0931235CF80911A
:1044B0000A048023811509F42FCFDFCF8091740483
:1044C000C11421F0891508F427CFA5CF981608F05C
:1044D00023CF802F0E94890F1FCF9114D1F3809199
:1044E000720490917304193321F0809170049091BB
:1044F00071040E94F90C812F0E942F100DCF8D2D79
:10450000869586958370811569F0813009F004CF16
:10451000812F9D2D9370C11002C080E090E00E9419
:10452000EE08FACE812F9D2D9370C11002C080E05D
:1045300090E00E94C808F0CE6C2D812F0E94460AA0
:10454000EBCE8D2D8370811133C0C110E5CE412F8C
:10455000429546954770440F440F812F8F70042E6B
:1045600001C0880F0A94EAF7212F207114FF07C0B9
:104570002FE030E001C0220F4A95EAF720953D2D4B
:10458000369536953370323071F0333051F04091BA
:104590000804313029F0822B84230E940B04BCCE06
:1045A000842B822BFACF822B909108048927F5CF98
:1045B000C11459F1D0FEB0CE412F429546954770B7
:1045C000440F440F812F8F70042E01C0880F0A946E
:1045D000EAF7212F207114FF07C02FE030E001C05F
:1045E000220F4A95EAF720953D2D36953695337082
:1045F000323089F0333069F040910904313041F0B4
:10460000822B84230E940E0487CE8230A8F684CEAB
:10461000842B822BF7CF822B909109048927F2CF2C
:104620000D2D0F70C11429F0802F0E941104812FCD
:10463000F3CE812F0E94890F802F0E941D046CCE23
:10464000123F71F160F4103FB9F0113F81F0C114D5
:1046500009F479C091105DCE8D2D8F7125C0133F67
:1046600031F1143FA1F78091770482FD2CC08D2D8C
:104670008F71C11411F318C080917404C11461F0DA
:10468000981608F049CE2D2D2F7181E090E001C0E1
:10469000880F2A95EAF7C0CF891508F43DCEF3CFED
:1046A0008D2D8F71C110C9CF0E94110435CE80E0CD
:1046B000C11409F4A7CF81E09D2D9F7101C0880F1F
:1046C0009A95EAF79FCF80916E04823048F1C11429
:1046D000C9F090910E049770943059F410920E0422
:1046E0001092100410920F048D2D8F710E941D04E2
:1046F0001ACE63E0981608F016CE8D2D8F710E94A9
:10470000DC0911CE981640F010920E04109210049D
:1047100010920F0464E0F1CF81E00E94C20403CE46
:10472000C11431F063E08D2D8F710E94DC09F4CD4E
:1047300081E00E94C20442E0941608F4EDCD82E0CC
:104740000E94C204E9CD9110CACE8D2D8F7175CF14
:1047500080910C0480930B0480910A0480930C04D4
:10476000F3CD40E060E089819A810E94E70E8A875C
:104770009B8700910A04911429F010927A04009307
:104780000C04E2CD8091780490917904AA85BB85D0
:10479000A817B907A1F780916F0483FFEECF80912E
:1047A0007A04811551F380910B040E94780F812FB8
:1047B0000E94921080910B040E94890FDECFA0E02E
:1047C000B0E0E5EEF3E20C94563280915104803172
:1047D00008F049C080915004811509F444C0C0918B
:1047E000120487E0D82E809111048C17E1F1EC2E91
:1047F000F12CDC9EE0011124FE01ED5EFB4F848173
:104800008115B1F1918180914C04981331C0908150
:1048100080914B0498132CC08581811129C002819D
:10482000138180914D0490914E04081B190B60E098
:104830008BE494E00E94050F0E943C1A08171907A8
:10484000B8F4809151048F70806180935104C75EE9
:10485000DB4F88818F70806188838BE494E00E94B5
:10486000BE1A0E94B804CDB7DEB7E7E00C947232EE
:10487000E7012196C770B7CFADE0B0E0E2E4F4E223
:104880000C944E328C0186E0F801DE0118960190FE
:104890000D928A95E1F7D80115966C9015971496AC
:1048A0005C908BE4A82E84E0B82E80914F04811197
:1048B00018C0511499F0611409F49FC1C8010E94F5
:1048C000DA0E811509F499C187E0F801ABE4B4E090
:1048D00001900D928A95E1F70E94DF23FF24F39463
:1048E00048C0F8017080C180E280F38060E08BE412
:1048F00094E00E94050FD090500480914D04909157
:104900004E044701881A990A60E08BE494E0D114C0
:1049100009F421C10E94050F0E943C1A88169906CD
:1049200008F0DDC05114D1F280914C04D8011196E9
:104930009C91B0905104B0E1BB1608F098C0F62CE1
:1049400098131CC090914B04F8018081981316C0F5
:10495000611078C08B2D8F708061809351048BE43F
:1049600094E00E94BE1A80915104D80116968C934F
:10497000F12C8F2D2D96EFE00C946A32611062C0FD
:10498000E091120480911104AE2F97E0A81302C0A9
:1049900097E02AC02A2F30E09A9FD0011124AD5E03
:1049A000BB4F11964C911197C41207C04C917412D1
:1049B00004C015964C9141112AC1D9011196A770D6
:1049C000E5CF2E2F30E09E9FF0011124ED5EFB4FCE
:1049D0004181C41206C04081741203C04581411157
:1049E000C7CFF9013196E7708E13EBCF8885998593
:1049F0000E94CB0E292F22952F70903448F02A5F09
:104A00002F702230C8F0C8010E94BE1AFD2CB1CF11
:104A10009F70223038F0911551F0F8019681903155
:104A200030F4A7CF911519F0811509F4A2CF805E5B
:104A3000883008F49ECFE7CF803F08F49ACF815F9B
:104A40008330F7CF8091510481608093510480912D
:104A50006F0481FD8DCF8BE494E00E94BE1A87E045
:104A6000EBE4F4E0DF011D928A95E9F781CF98131A
:104A700016C090914B04D8018C91981310C061100E
:104A80000EC01696BC92C8010E94BE1A87E0F801BB
:104A9000ABE4B4E001900D928A95E1F71FCFC80115
:104AA0000E94DA0E811509F4A8C0611409F4A5C0AA
:104AB00080915104803208F407CF80914B0490918B
:104AC0004C049A838983FC82EB8280914F048D830E
:104AD0001E82BF82CE0101960E94BE1AF5CED090F2
:104AE0005104B0E1DB1608F4B6CF511409F4F6CE48
:104AF00090914C04F8018181981311C090914B045E
:104B0000808198130CC061100AC0D682C8010E942F
:104B1000BE1A87E0D5011D928A95E9F7DFCEC8015C
:104B20000E94DA0E811509F468C0611409F465C0A9
:104B300080915104803208F4C7CE80914B0490914B
:104B40004C049A838983FC82EB8280914F048D838D
:104B50001E82DF82BFCF0E94050F0E943C1A88167A
:104B6000990608F04EC0511409F4B8CE611409F446
:104B700044C090914C04F8018181981334C0909105
:104B80004B04808198132FC0C0904D04D0904E04E8
:104B900060E08BE494E00E94050F80916F0482FD39
:104BA00075CFEC18FD0880916A0490916B04E816AB
:104BB000F90608F06BCF8091510480FD67CF8031FA
:104BC00008F464CFD80116968C931697982F907F8F
:104BD000903F09F458CF982F907F905F8F70892B6A
:104BE00016968C9350CFC8010E94DA0E81116CCEBC
:104BF00080915104816080935104C8010E94BE1AC3
:104C00006DCE87E0F50111928A95E9F7B1CE9091CA
:104C10006F0490FFBDCE1FCFABE1B0E0E2E1F6E262
:104C20000C9455324E8B5F8B688F798F082F8A8F4B
:104C3000192F9B8FD82EC92E811509F485C040E00D
:104C4000692F8E899F890E94E70E7C01111549F01A
:104C500010927A04909379048093780410920D0452
:104C60000AC080917804909179048E159F0519F4FB
:104C700081E080937A041D8A86E0FE017696DE014B
:104C80001F9601900D928A95E1F78091770482FF3B
:104C900021C08091540490915504892BD9F00E9431
:104CA000770920910F0430911004821B930B2091FF
:104CB0005404309155048217930738F080910E0404
:104CC00082FD03C082E00E94C2040E948309811118
:104CD0000E94EC04D11461F00B8B1C8B61E0CE01BF
:104CE0000F960E94050F61E0CE010F960E94050FFE
:104CF0000B8B1C8B87E0FE013F96DE01189601901E
:104D00000D928A95E1F7CE0108960E943C2481110C
:104D100010C0209111043091120487E0FE013896F2
:104D2000DE01119601900D928A95E1F78C85811133
:104D30000FC017E0809112049091110489132FC0C5
:104D40006B96E8E00C947132911509F494CF86CFFC
:104D5000822F90E00196877099273817190671F411
:104D60000E949F10109211041092120487E0EBE44D
:104D7000F4E0DF011D928A95E9F7DBCF97E0929F7F
:104D8000D0011124AD5EBB4FFE01319601900D9212
:104D90009A95E1F7809311040E94B804CACF189F36
:104DA000C00111248D5E9B4F0E943C24811541F26D
:104DB0008091120490E001968770992780931204E5
:104DC000B9CFA6E0B0E0E7EEF6E20C9459320E94CB
:104DD00077098C0180919D0290919E028017910726
:104DE00079F019821A820E947709BC0149815A819F
:104DF00080E090E00E940C2610939E0200939D029A
:104E00002696E4E00C947532A6E0B0E0EAE0F7E222
:104E10000C945B329C0190939A0280939902211525
:104E200080E2380738F4C9010E9407102696E2E0B4
:104E30000C94773280EF89838A830E94770981609E
:104E4000BC0149815A8181E091E00E940C26EECF9D
:104E5000A6E0B0E0EEE2F7E20C945B329C019093A6
:104E60009A0280939902211580E2380738F4C9012B
:104E70000E9462102696E2E00C94773280EF8983DC
:104E80008A830E9477098160BC0149815A8181E04F
:104E900090E00E940C26EECFCF93DF93D82FC92F3E
:104EA0000E94042780917004909171040E94F90C73
:104EB0008D2F9C2F0E942827DF91CF9108950F936B
:104EC0001F93CF93DF938C01862F64EE72E00E94D4
:104ED000271A892BA9F4C091E402D091E50220970A
:104EE00079F0F8018281833051F4CE010E944C2781
:104EF000CE010E944C27CE010E944C2701C0D8F75A
:104F0000DF91CF911F910F9108950F931F93CF932E
:104F1000DF938C01EB0164EE72E08C2F0E94271A64
:104F2000892B09F05AC0FE01FF27D80112968C91F7
:104F30001297EF5BFD4F8130A9F415968C9182FD9D
:104F400051C080FF4FC082E080838091E602909143
:104F5000E7020097B9F48091E4029091E50200978E
:104F6000E1F110C08230B9F515968C9182FD28C010
:104F700080FD0BC083E080838091E8029091E9027C
:104F8000009701F10E94042728C084E0808380916B
:104F9000EA029091EB020097A9F78091E4029091C8
:104FA000E502009711F10E944C278091E602909152
:104FB000E702009739F78091E4029091E502E2CF91
:104FC00085E080838091E4029091E502009729F0CA
:104FD0000E944C27F0CF86E08083DF91CF911F9114
:104FE0000F91089581E08083B6CF8091E602909181
:104FF000E702B5CF0F931F93CF93DF938C01EB01A3
:1050000064EE72E08C2F0E94271A892BA1F4809104
:105010007004909171040E94F90CDD27CF5BDD4F85
:105020008881F801128218828330F1F048F48130CF
:1050300059F0823081F0DF91CF911F910F91089547
:105040008430B9F08530B9F78091E4029091E5029F
:10505000009789F306C08091E6029091E7020097DD
:1050600099F30E942827E7CF8091E8029091E90206
:10507000F6CF8091EA029091EB02009791F7209190
:10508000E4023091E5028091E6029091E702211559
:105090003105F1F2009729F7C901E3CFCDB7DEB7AB
:1050A000AC970FB6F894DEBF0FBECDBF85B7806852
:1050B00085BF85B7806885BF84B7877F84BF0FB6FB
:1050C000F894A895809160008861809360001092A8
:1050D00060000FBE80E890E00FB6F8948093610006
:1050E000909361000FBE81E080933A018AEE96E0D2
:1050F0009093CF018093CE010E9414070E94A819BB
:105100000E942E0E0E94360C0E949E0C8091E2009E
:1051100084608093E200789480917502811599F003
:105120008091E9001091EC008F7017951127179569
:10513000182B1092E9008091E80083FD0E9457111E
:105140001F701093E90082E084BD93E095BD9AEF53
:1051500097BD80936E001092950210929602109265
:105160009702109298020E940D0F811102C00E94B6
:1051700098198091D80080618093D8002AE12A95FF
:10518000F1F700C08091D900182F117080FD04C084
:105190000E94360C109275021093930210939402A1
:1051A0001093040111110E94E93080910401809153
:1051B000040191E08927880F880F8093520294E0C0
:1051C000981B9093510284E90E94EC0686E60E94A7
:1051D000EC0687E90E94EC0686EC0E94EC0609E5E5
:1051E00011E06FE5C62E61E0D62ED8018D918D01BC
:1051F0008F3F11F00E94EC06C016D106B1F788E08F
:10520000EDE6F2E0DF01282F1D922A95E9F7E9E4A7
:10521000F2E0DF011D928A95E9F780E090E00E94BC
:10522000F532853E9E4F21F40E940D0F811163C01F
:1052300065EE7EEF80E090E00E94293360E082E03E
:1052400090E00E940B3381E08093080461E083E0EA
:1052500090E00E940B3360E074E184E090E00E94F3
:10526000293360E086E090E00E940B3360E087E045
:1052700090E00E940B3340E050E0BA0188E090E0FB
:105280000E941D3360E083E290E00E940B3360E0F7
:105290008CE090E00E940B3360E08DE090E00E9493
:1052A0000B3319821A821B821C821D821E821F826E
:1052B000188648E050E067E170E0CE0101960E9458
:1052C000FB3240E050E0BA018FE190E00E941D33D4
:1052D00080E00E94F50D0E94981940E050E0BA016C
:1052E0008FE090E00E941D3340E050E0BA0183E17E
:1052F00090E00E941D3382E090E00E94ED328093A6
:10530000550284E090E00E94F532909377048093F8
:1053100076040E94AA15EFEFF6E721E0E150F04095
:105320002040E1F700C000000E94AA15E09194021D
:1053300081E0E827EE0FEE0FF0E0E359FD4F8081AA
:1053400081FF08C06FEF7FEF80E090E00E9429337B
:105350000E947C0B83E090E00E94ED320E940B04DF
:1053600080919302811102C00E94EC3085E091E0AF
:105370009093C0028093BF0250E4752E8091750215
:10538000853049F480917502853009F454C00E943B
:105390009F100E94B7080E94AA1506E512E02DE6AC
:1053A00032E03CA72BA7D901F80191918D912EE510
:1053B00032E02E173F0709F472C09817B1F330900E
:1053C0009302D12C22242394ABA5BCA5CD90BCA7DD
:1053D000ABA7F80161908F016C1431F16C24B12CF2
:1053E000AA24A394862D8A218115B9F03114A9F03D
:1053F000B982DA820E9477099C838B832D8291E0A7
:105400008C2D8A21811101C090E09E8349815A81AF
:105410006B817C818D810E940C26B394AA0CF6E0EE
:10542000BF12E0CFF801C292D39428E0D212CCCFC1
:105430000E94170B38C080917502843019F11092C8
:10544000530288E190E00FB6F894A895809360002D
:105450000FBE7092600083B7817F846083BF83B783
:10546000816083BF7894889583B78E7F83BF0FB6A2
:10547000F894A895809160008861809360001092F4
:1054800060000FBE0E94AA15EDE6F2E08191811145
:105490007EC4A5E7B2E0AE17BF07C1F773CF98137C
:1054A0008ECF0E94E12680919302811509F48DC070
:1054B00000916B0310916C030115110591F1A090FF
:1054C0006202B0906302C0906402D09065020E94B4
:1054D0000B0B6A197B098C099D0920915E023091A2
:1054E0005F02409160025091610262177307840766
:1054F0009507B8F0C8010E94071010926B03109234
:105500006C03109262021092630210926402109275
:10551000650210925E0210925F0210926002109279
:105520006102C090F303D090F403C114D10461F17F
:10553000A090F503B090F6030E9477098C010A1938
:105540001B09C6010E943C1A80179107E8F480915C
:10555000F3039091F4039C013327887F9927412C12
:10556000512C892B49F444E0220F331F4A95E1F76F
:10557000C9018D589C4F2C01D20115968C9182FD4A
:1055800003C0C2010E94F41480916D0480FF1DC00D
:1055900080913C0182FF19C00E9477094C018091E3
:1055A000F7039091F8039401281B390B80910F01A8
:1055B000909110012817390740F041E0B401809123
:1055C000F9039091FA030E94461486E0EEEDF2E0B2
:1055D000DE01119601900D928A95E1F76090DF024D
:1055E000B090E002C090E102A090E202D090E3020D
:1055F0001092E0021092E1021092E2021092E30295
:105600008C2D8B298115A1F00091680210916902FF
:105610000E9477099C01201B310B9091DC029115AF
:1056200009F48BC0809114018217130608F493C00B
:105630008D2D8A298115A1F00091660210916702D3
:105640000E9477099C01201B310B9091DB02911580
:1056500009F4B1C0809112018217130608F4B9C091
:105660008091DF02861119C08091E002811511F04E
:105670008B1113C02091E102211511F02C110DC0E6
:105680009091E302911511F09D1107C03091E20253
:10569000311103C0822B892B81110E941E0A86E0E2
:1056A000FE013196AEEDB2E001900D928A95E1F7E0
:1056B0000E94B70890916A02891721F080936A02CC
:1056C0000E940B0B80917502843009F057CE83E065
:1056D0008093E9008091E80082FF50CE8091E8003D
:1056E00090E085FF06C00E94050C811509F4A1C059
:1056F00091E08091E8008B778093E800911509F4A0
:105700003DCE00919B0210919C02E981011511058B
:1057100009F4ACC0EE3F09F0CDC08A81833020F09F
:105720008550833008F0C6C0EA81EE3008F0C2C070
:10573000F0E0E556FC4C0C94AA3240911301BAE01B
:105740004B9FA00111244217530708F071CF9F5FB0
:105750009093DC0202C09F3FD1F7B11459F00E9430
:10576000200891E01B140CF09FEF899F802D1124DD
:105770008093E002C11459F00E94200891E01C14AB
:105780000CF09FEF899F802D11248093E10280917E
:10579000E002811509F44CCF1091E102111509F4D2
:1057A00047CF0E9412088093E002812F0E941208C6
:1057B0008093E1023DCF40911101EAE04E9FA001AC
:1057C00011244217530708F04BCF9F5F9093DB02E1
:1057D00002C09F3FD1F7A11459F00E94790891E0CF
:1057E0001A140CF09FEF899F802D11248093E20200
:1057F000D11459F00E94790891E01D140CF09FEF2C
:10580000899F802D11248093E3028091E20281150B
:1058100009F426CF1091E302111509F421CF0E945B
:1058200012088093E202812F0E9412088093E30203
:1058300017CF00E210E09E012F5F3F4F690180917A
:10584000E80085FD0AC08091E8008B778093E8002E
:105850000E94050C811599F34BCF8091F100D60180
:105860008D936D010150104051F742CFE43150F457
:10587000E11559F0E150E33140F4F0E0E755FC4C1C
:105880000C94AA32EE3F09F44FCF8FEFACC21A82CC
:1058900089E08B830FC08A818230A9F08330E1F0E8
:1058A000813099F70E940B0B0E94B0326B837C838E
:1058B0008D839E8340E250E0BE016F5F7F4F82E0A8
:1058C0000E94070D5BCD87E290E00E94ED321B82C3
:1058D0001C821D828E83EECF80911501909116015E
:1058E000892B41F388E0EDE6F2E0DE0113960190AA
:1058F0000D928A95E1F7DECF8A81823031F66B8195
:105900007C818D819E810E94B03287E290E00E946E
:105910000B33D0CF4C816B818A810E94540E982723
:10592000892798279E838D83C5CF2D813E8132277D
:10593000232732274C816B818A810E94BE0DBACF0A
:105940000E942019B7CF80E18A83B4CF81E08A8397
:1059500084E99FCF8C81C82ED12C8D3108F0AACF3D
:105960000A811B81102701271027C00ED11E5E015E
:10597000B5E0AB0EB11C0C151D0509F49BCF80E002
:105980000439E1E01E0728F4C80184599D4F0E94A4
:10599000ED32D5018D935D010F5F1F4FECCF8091EC
:1059A000150190911601892B09F484CF8C81A82EC2
:1059B000B12C8D3108F07ECF0A811B811027012781
:1059C0001027FE0131966F01AE0EBF1EAC14BD0450
:1059D00009F470CF043931E0130740F4D60114966E
:1059E0006C91C80184599D4F0E940B330F5F1F4F6C
:1059F000BFEFCB1ADB0AEACF0E94E50D5BCF84E054
:105A0000A3CF8C81C82ED12C8D3108F053CF0A81C1
:105A10001B81102701271027C00ED11E5E01E5E073
:105A2000AE0EB11C0C151D0509F444CF80E0003802
:105A3000F1E01F0720F4C80188960E94ED32D501DD
:105A40008D935D010F5F1F4FEDCF8C81C82ED12C40
:105A50008D3108F02FCF0A811B81102701271027D5
:105A60000038B1E01B0708F025CF80E891E0801BEB
:105A7000910B8C159D0508F41DCFFE0131965F0139
:105A8000CE0EDF1EAC14BD0409F414CF003831E093
:105A9000130738F4D50114966C91C80188960E94BA
:105AA0000B330F5F1F4FBFEFAB1ABB0AEBCF88E082
:105AB000EDE3F1E0DE01919601900D928A95E1F718
:105AC000FE0132968FE1DF011D928A95E9F786E0AB
:105AD000898388E07F96DE01159609CF84E8898363
